:020000040800F2
:100000000008002029020008EB1C00080D1A000857
:10001000E91C00081F04000853210008000000002C
:10002000000000000000000000000000EF1C0008BD
:100030002104000800000000ED1C0008F11C00086D
:10004000430200084302000843020008430200087C
:10005000430200084302000843020008430200086C
:10006000430200084302000843020008430200085C
:10007000430200084302000843020008430200084C
:10008000430200084302000843020008430200083C
:10009000430200084302000843020008430200082C
:1000A000811D0008430200084302000843020008C3
:1000B0008D1D0008430200084302000843020008A7
:1000C00043020008430200084302000843020008FC
:1000D00043020008430200084302000843020008EC
:1000E00043020008430200084302000843020008DC
:1000F00043020008430200084302000843020008CC
:100100004302000843020008991D0008430200084A
:100110004302000843020008A51D0008430200082E
:10012000430200084302000843020008430200089B
:100130004302000800000000000000004302000825
:10014000430200084302000843020008430200087B
:10015000430200084302000843020008430200086B
:10016000430200084302000843020008430200085B
:1001700043020008430200080000000000000000E5
:10018000430200084302000800F002F800F03CF8C7
:100190000AA090E8000C82448344AAF10107DA45E2
:1001A00001D100F031F8AFF2090EBAE80F0013F0F8
:1001B000010F18BFFB1A43F001031847C0240000C9
:1001C000E0240000103A24BF78C878C1FAD852075A
:1001D00024BF30C830C144BF04680C6070470000C1
:1001E0000023002400250026103A28BF78C1FBD840
:1001F000520728BF30C148BF0B6070471FB502F0DF
:100200002FFA1FBD10B510BD00F0CFF81146FFF753
:10021000F5FF01F0AFFF00F0EDF803B4FFF7F2FFD8
:1002200003BC00F0F5F80000094880470948004782
:10023000FEE7FEE7FEE7FEE7FEE7FEE7FEE7FEE796
:10024000FEE7FEE704480549054A064B70470000F3
:10025000711D00088901000800020020000800202C
:10026000000400200004002053EA020C00F0698022
:100270002DE9F04B4FF00006002B1FBFB3FA83F5BA
:1002800003FA05F424FA05F65E4012BF1643B2FAEB
:1002900082F502FA05F4C5F120051EBF22FA05FC1D
:1002A00044EA0C04203556EA044C4FEA144418BFC3
:1002B000641C4FF000084FF00009904271EB030CF2
:1002C00039D3002919BFB1FA81F701FA07F6B0FA5C
:1002D00080F700FA07F6C7F120071EBF20FA07FCD7
:1002E00046EA0C062037B6FBF4FCA7EB0507103FE7
:1002F00007F01F0BCBF120060CFA0BFB2CFA06F6CD
:1003000044BFB3460026202FA4BF5E464FF0000B2B
:100310005BEA060C08BF4FF0010B19EB0B09ABFBB6
:10032000027C48EB0608C01B06FB02CC0BFB03CC8F
:1003300071EB0C01C1E70B46024641464846BDE859
:10034000F08B13B54FF000004FF00001AFF30080C9
:10035000BDE81C4070474FF0000200B513469446BC
:100360009646203922BFA0E80C50A0E80C50B1F10D
:100370002001BFF4F7AF090728BFA0E80C5048BF21
:100380000CC05DF804EB890028BF40F8042B08BFBF
:10039000704748BF20F8022B11F0804F18BF00F8BB
:1003A000012B7047704770477047754600F02CF876
:1003B000AE4605006946534620F00700854618B052
:1003C00020B5FFF73FFFBDE820404FF000064FF09B
:1003D00000074FF000084FF0000B21F00701AC467A
:1003E000ACE8C009ACE8C009ACE8C009ACE8C00999
:1003F0008D46704710B50446AFF300802046BDE837
:100400001040FFF70ABF0000004870479C01002021
:1004100001491820ABBEFEE7260002007047FEE748
:10042000704700002DE9F84FDFF8BCA1002201253C
:100430000AF1040B03264FF00F090BF1040E00BF65
:100440000B6805FA02F42340A34270D10F7907F03C
:100450000307012F01D0022F16D187684FEA420807
:1004600006FA08FC27EA0C07D1F80CC00CFA08FCC5
:100470004CEA070CC0F808C04768A7430C79C4F3DE
:10048000001494403C4344600C79E443A4070AD030
:10049000C4684FEA420C06FA0CF7BC438F6807FAAF
:1004A0000CF72743C7600C7904F00304022C12D127
:1004B000D40800EB840CDCF820405707FF0E09FA43
:1004C00007F824EA0804D1F8108008FA07F848EA87
:1004D0000408CCF8208004684FEA420C06FA0CF7B6
:1004E000BC430F7907F0030707FA0CF727430760AF
:1004F0004C6814F4403F70D03C4C276847F4804768
:100500002760246822F0030704F480440094384CE8
:1005100007EB040CDCF8084897074FEA177809FA4C
:1005200008F7BC43334FB84202D1002724E054E01F
:10053000314FB84201D101271EE0304FB84201D1FE
:10054000022719E02E4FB84201D1032714E02D4FA6
:10055000B84201D104270FE02B4FB84201D1052743
:100560000AE02A4FB84201D1062705E0284FB842D9
:1005700001D1072700E0082707FA08F72743CCF83E
:100580000878DAF800405746D1F804C09C435FEA87
:10059000CC3C00D51C433C60DBF800405F46D1F802
:1005A00004C09C435FEA8C3C00D51C433C60DEF8F1
:1005B00000407746D1F804C09C435FEACC2C00D5BC
:1005C0001C433C60084F0C373C68D1F804C09C4386
:1005D0005FEA8C2C00D51C433C60521C102AFFF4AF
:1005E0002FAFBDE8F88F0000003C014044380240C6
:1005F00000300140000002400004024000080240B8
:10060000000C02400010024000140240001802409A
:10061000001C024001488068704700002400002050
:1006200002488168027811448160704724000020EC
:100630000B4810B5016841F400710160016841F494
:1006400080610160016841F480710160032000F065
:100650006FF80F2000F006F800F024F8002010BD1D
:10066000003C024070B50D4D04464FF47A71287875
:10067000B1FBF0F00A490968B1FBF0F000F0ECFAC8
:1006800048B9102C07D200222146501E00F030F845
:1006900000206C6070BD012070BD000024000020AF
:1006A000300000200A4808B5016841F4804101602B
:1006B000006800F4804000900548001F016841F088
:1006C00080510160006800F08050009008BD00007B
:1006D00044380240002809DB00F01F02012191404C
:1006E0004009800000F1E020C0F8001170470000D0
:1006F000F0B40E4B1B680C46C3F30223C3F107058D
:10070000042D00D90425191D072901D2002300E07A
:10071000DB1E012606FA05F1491E214099409E4044
:10072000761E16403143F0BC01F014BD0CED00E024
:10073000064900F0070208684FF6FF03184040EA38
:100740000220034A10430860704700000CED00E0EF
:100750000000FA052DE9F0470E46050065D0DFF8E8
:100760001481D8F80000F7B200F00700B04207D2B9
:1007700088F80070D8F8000000F00700B04254D1AB
:1007800028683D4C810712D5400703D5206840F406
:10079000E05020602878000703D5206840F46040CE
:1007A00020602068A96820F0F000084320602878C5
:1007B000C0072DD0304968680839012812D00228B6
:1007C00013D0032811D00968890700292DDA216880
:1007D00021F0030101432160FFF71CFF814641F234
:1007E000883A0EE009688903EFE709688901ECE7B8
:1007F000FFF710FFA0EB0901514502D90320BDE826
:10080000F0872068696800F00C00B0EB810FEFD131
:10081000D8F80010404601F00701B14207D907702F
:10082000006800F00700B04201D00120E7E7287817
:10083000400705D52068E96820F4E05008432060AF
:100840002878000706D52068296920F4604040EA2E
:10085000C100206000F018F82168084AC1F30311B4
:10086000515CC8400649086006480068FFF7FAFE78
:100870000020C4E7003C0240083802406A26000815
:100880003000002028000020154810B5006810F046
:100890000C02144813D01449042A0FD0082A0ED190
:1008A0000F4C241F2268236802F03F025B0207D529
:1008B0002068C0F38810A0FB010106E0084610BDC7
:1008C0002168C1F38811A1FB00010023FFF7CCFCD4
:1008D0002168C1F30141491C4900B0FBF1F010BD92
:1008E000083802400024F40040787D012DE9F84FDB
:1008F00004006ED02078DFF84C93C007A9F10405FE
:100900004AD009F104000168C1F38101012908D02E
:100910000068C0F3810002280AD1D9F80000400223
:1009200006D52868800337D560680028E1D033E019
:100930006068B0F5803F10D0B0F5A02F286810D0C7
:1009400020F480302860286820F4802028606068C7
:10095000A8B1FFF75FFE06460DE0286840F480303E
:10096000F4E740F480202860F7E700BFFFF752FE6D
:10097000801B642873D828688003F7D50CE0FFF744
:1009800049FE064605E000BFFFF744FE801B6428D1
:10099000F0D828688003F7D42078DFF8AC8280078D
:1009A0004FF0000A3ED5A748001D016811F00C0F5A
:1009B00008D00068C0F3810002280BD1D9F80000EC
:1009C000400207D42868800716D5E068012800D1C6
:1009D00012E033E1E068B8B10120C8F80000FFF789
:1009E00019FE064605E000BFFFF714FE801B022833
:1009F000C0D828688007F7D52868216920F0F8005A
:100A000040EAC10028600DE0C8F800A0FFF702FE30
:100A1000064604E0FFF7FEFD801B02281FD8286869
:100A20008007F7D42078000722D5864F8748616970
:100A3000703771B101210160FFF7ECFD064604E05B
:100A4000FFF7E8FD801B022809D838688007F7D532
:100A50000EE0C0F800A0FFF7DDFD064605E082E0ED
:100A6000FFF7D8FD801B02287DD838688007F7D4AF
:100A70002078400768D5DFF8CCB100270BF13C0B9C
:100A8000DBF80000C0000BD4DBF8001041F080510F
:100A9000CBF80010DBF80000012700F08050009038
:100AA0006B4E3068C00510D4306840F48070306000
:100AB000FFF7B0FD009005E0FFF7ACFD0099401A8C
:100AC000022850D83068C005F6D55E4EA0686C3656
:100AD00001280FD00528306810D020F001003060C8
:100AE000306820F004003060A068B8B1FFF792FDD4
:100AF00000900FE0306840F00100F4E740F004009F
:100B00003060F7E7FFF786FD0099411A41F288301F
:100B1000814266D830688007F4D50EE0FFF77AFD91
:100B2000009007E0FFF776FD0099411A41F2883006
:100B3000814256D830688007F4D42FB1DBF800101A
:100B400021F08051CBF80010A069C8B33D49091DC0
:100B50000968C1F3810102294AD00228504607D012
:100B6000C8F8600000E03CE0FFF754FD04463BE0BD
:100B70004746C8F86000FFF74DFD064605E000BF98
:100B8000FFF748FD801B02282BD828688001F7D486
:100B9000D4E907010843A16A2E4A490802EB014142
:100BA000626A41EA8211084394F82C1040EA01611C
:100BB000C9F8001001203866FFF72CFD044606E056
:100BC0003EE000BFFFF726FD001B022809D8286879
:100BD0008001F7D534E000BFFFF71CFD001B0228A1
:100BE00002D90320BDE8F88F28688001F4D427E0FB
:100BF0000128F7D0D9F80000E26900F480019142A1
:100C00001CD1226A00F03F01914217D147F6C07112
:100C1000626A0140B1EB821F10D1A26A4FF0FF332C
:100C200000F4403103EB5202B1EB024F06D194F8CD
:100C30002C1000F07060B0EB016F01D00120D1E703
:100C40000020CFE70438024000004742800E4742B0
:100C5000007000400000FFFF10B5401EB0F1807F23
:100C600001D3012010BD4FF0E02460610F21601717
:100C700001F070FA0020A06107202061002010BD63
:100C80007047704710B590F83C20012A22D001220D
:100C900080F83C20CA688C6822F4407222434C6879
:100CA00022F4806222430C6822F4006222430C6921
:100CB00022F4805222434C6922F400522243C96933
:100CC000002322F480420A4301684A6480F83C30E1
:100CD000002010BD022010BD70B590F83C20012A04
:100CE00032D0012480F83C40022280F83D20036885
:100CF0005A689D6822F070060A6832435A60134BA6
:100D000002689A4214D0B2F1804F11D0104B9A422F
:100D10000ED0104B9A420BD00F4B9A4208D00F4B7B
:100D20009A4205D00E4B9A4202D00E4B9A4204D101
:100D3000496825F080031943916080F83D40002107
:100D400080F83C10084670BD022070BD00000140D4
:100D50000004004000080040000C00400004014076
:100D6000004001400018004010B50446022249B17D
:100D700004290ED0082913D094F84500012816D074
:100D8000012010BD94F842000128F9D184F84220D6
:100D90000FE094F843000128F2D184F8432008E0E2
:100DA00094F844000128EBD184F8442001E084F851
:100DB00045200422206801F06CF82068416C41F461
:100DC0000041416411492068884214D0B0F1804F3D
:100DD00011D00F4988420ED00E4988420BD00E49DF
:100DE000884208D00D49884205D00D49884202D07A
:100DF0000C49884204D1816801F00701062903D01B
:100E0000016841F001010160002010BD00000140B7
:100E10000004004000080040000C004000040140B5
:100E2000004001400018004010B5040003D094F8C1
:100E30003D0010B107E0012010BD002084F83C0007
:100E4000204600F01FF8022084F83D00211D206894
:100E500000F0AEFF012084F8460084F83E0084F8DC
:100E60003F0084F8400084F8410084F8420084F890
:100E7000430084F8440084F8450084F83D000020D5
:100E800010BD0000F0B587B0044614216846FFF796
:100E900062FA49492668484A103902240123032589
:100EA0004648B6F1804F25D0454FBE4241D1166825
:100EB00046F008061660126802F0080205920A68F9
:100EC00042F001020A600968CDE9003401F0010135
:100ED000CDE90441CDE902356946FFF7A3FA0022C6
:100EE00011463220FFF704FC5FF03200FFF7F2FBFF
:100EF00007B0F0BD166846F001061660126802F0F1
:100F0000010205920A6842F001020A60096803952D
:100F10000094CDE9014301F00101CDE904316946B6
:100F2000FFF780FA002211461C20FFF7E1FB1C208E
:100F3000DCE7244FBE420ED1106840F01000106074
:100F40001068002200F01000059011463620FFF7CF
:100F5000CFFB3620CAE7184A1B4F121DBE4208D1EC
:100F6000106840F002001060106800F00200059068
:100F7000BEE7164FBE42BBD1166846F480361660F7
:100F8000126802F4803205920A6842F001020A6097
:100F90000968CDE9023501F0010105910421CDE98F
:100FA000001404956946FFF73DFA00221146182007
:100FB000FFF79EFB182099E74038024000000240EE
:100FC000000C0040001000400004014000400140BF
:100FD00090F83D10012901D001207047022180F8CE
:100FE0003D100168CA6842F00102CA6000681149F8
:100FF000884214D0B0F1804F11D00F4988420ED0F2
:101000000E4988420BD00E49884208D00D498842CB
:1010100005D00D49884202D00C49884204D181682C
:1010200001F00701062903D0016841F001010160C8
:10103000002070470000014000040040000800400C
:10104000000C004000040140004001400018004036
:1010500070B5044690F83C000025012817D0012601
:1010600084F83C60022084F83D002068826822F009
:10107000770222F47F4282600868502838D00DDC65
:1010800020284FD005DC90B3102811D14AE002206F
:1010900070BD302846D040280AD13BE060282FD0D0
:1010A00070280DD0B0F5805F03D0B0F5005F12D08E
:1010B000012584F83D60002084F83C00284670BD7E
:1010C000CB68D1E90121206800F0F0FE206881683A
:1010D00041F0770109E0CB68D1E90121206800F0F7
:1010E000E5FE2068816841F480418160E1E719E014
:1010F000CA684968206800F0ADFF5021206806E00A
:10110000CA684968206800F0F7FF6021206800F095
:10111000D7FECEE7CA684968206800F09BFF4021EF
:101120002068F4E7226801461046F0E770B50446EF
:1011300000681F490025884225D1207F1D4E0128C7
:1011400002D0022805D01EE0194824300560356021
:1011500019E00421184800F043FC3168C1EB01415B
:1011600008441649086001F014FA41EC100B53ECE6
:10117000102B9FED130B51EC100B01F083F801F0D5
:10118000D9F91149086021680120B1F1804F0AD0D6
:101190000E4A914206D1217F0D4A012906D002292B
:1011A00000D1157070BD217F0A4AF6E7107070BD3E
:1011B000000C00401C0000207C00002014000020D7
:1011C00000000000531E714120000020004001403B
:1011D00019000020180000202DE9F041054690F884
:1011E0003C0000260C46012810D0012085F83C0068
:1011F00072B1042A1CD0082A2CD00C2A50D0012607
:10120000002085F83C003046BDE8F0810220FBE775
:10121000D4E90012E368286800F02EFF286881698D
:1012200021F00C01816128688169A26811430FE0F7
:10123000D4E90012E368286800F070FF286881692B
:1012400021F44061816128688169A26841EA022134
:101250008161D5E72868D4E9002C277B016A21F455
:1012600080710162C169036A21F0030141EA0C0146
:1012700021F0F00C39074FF420674CEA116123F498
:10128000206307EA02221A43C16102622868C16929
:1012900021F00C01C1612868C169A268114328E0EE
:1012A0002868D4E90027E168036A23F480530362C5
:1012B000D0F81CC0036A2CF4407C4CEA07274FF698
:1012C000FF7C27F470470CEA013139434FF4204783
:1012D00023F4204307EA02321A43C16102622868FC
:1012E000C16921F44061C1612868C169A26841EA0D
:1012F0000221C16184E710B5040003D094F83D00D9
:1013000010B107E0012010BD002084F83C00204609
:1013100000F01EF8022084F83D00211D206800F036
:1013200047FD012084F8460084F83E0084F83F0021
:1013300084F8400084F8410084F8420084F84300B7
:1013400084F8440084F8450084F83D00002010BD76
:101350007047000030B50446002551B104290DD076
:10136000082910D094F8410094F84520012811D1A3
:101370000EE094F83E0094F84220F7E794F83F001E
:1013800094F84320F2E794F8400094F84420EDE705
:10139000012A01D0012030BD022059B1042912D008
:1013A000082919D084F8410084F845000C2944D05C
:1013B000012540E084F83E0084F842002068C268BD
:1013C00042F0020210E084F83F0084F843002068F5
:1013D000C26842F0040207E084F8400084F8440048
:1013E0002068C26842F00802C2600122206800F052
:1013F00043FD14492068884214D0B0F1804F11D0C9
:10140000114988420ED0114988420BD010498842B8
:1014100008D01049884205D00F49884202D00F49B0
:10142000884204D1816801F00701062903D00168D0
:1014300041F001010160284630BD2068C26842F0D9
:101440001002D1E700000140000400400008004005
:10145000000C004000040140004001400018004022
:1014600070B50446006801694FF00005C94389075B
:1014700015D4C168C943890711D4E91E016101204F
:101480002077206880698007204602D0FFF74EFE53
:1014900004E000F0EBF8204600F07DF925772068A5
:1014A0000169C943490717D4C168C943490713D41F
:1014B0006FF004010161022020772068806910F438
:1014C000407F204602D0FFF731FE04E000F0CEF866
:1014D000204600F060F9257720680169C9430907B3
:1014E00016D4C168C943090712D46FF0080101611D
:1014F000042020772068C0698007204602D0FFF7CB
:1015000015FE04E000F0B2F8204600F044F925771B
:1015100020680169C943C90617D4C168C943C9060F
:1015200013D46FF010010161082020772068C06992
:1015300010F4407F204602D0FFF7F8FD04E000F0F1
:1015400095F8204600F027F9257720680169C943FE
:10155000C90708D1C168C943C90704D1891E0161FF
:10156000204600F07DF920680169C943090609D4C5
:10157000C168C943090605D46FF0800101612046A6
:10158000FFF77EFB20680169C943490609D4C16899
:10159000C943490605D46FF040010161204600F0BF
:1015A00034FA20680169C94389060BD4C168C9436C
:1015B000890607D46FF0200101612046BDE8704024
:1015C000FFF75FBB70BD000070B586B00446142104
:1015D0006846FEF7C0FE2049206888423AD11F487D
:1015E0000024016841F001010160016801F001017E
:1015F0000591016841F002010160016801F00201FA
:101600000591016841F0040101600068022500F0C5
:101610000400059080200090CDE901540326CDE917
:10162000034669460E48FEF7FDFEB0030090CDE983
:101630000154CDE9034669460A48FEF7F3FE4FF42C
:10164000E0700090CDE90154CDE9034669460648B3
:10165000FEF7E8FE06B070BD0004014030380240DD
:10166000000002400004024000080240704770B5CC
:10167000044690F83C0000260D4601280FD00120BA
:1016800084F83C006AB1042A1DD0082A2FD00C2A05
:101690003FD00126002084F83C00304670BD022077
:1016A00070BD206800F014FC2068816941F00801D9
:1016B00081612068816921F004018161206881696C
:1016C0002A69114311E0206800F032FC206881692A
:1016D00041F4006181612068816921F48061816148
:1016E000206881692A6941EA02218161D2E7206884
:1016F00000F054FC2068C16941F00801C161206814
:10170000C16921F00401C1612068C1692A691143DE
:1017100011E0206800F076FC2068C16941F40061A6
:10172000C1612068C16921F48061C1612068C1691B
:101730002A6941EA0221C161ACE710B5040003D077
:1017400094F83D0010B107E0012010BD002084F89E
:101750003C00204600F01EF8022084F83D00211DC8
:10176000206800F025FB012084F8460084F83E0044
:1017700084F83F0084F8400084F8410084F8420077
:1017800084F8430084F8440084F8450084F83D0060
:10179000002010BD7047704710B50446022249B1C1
:1017A00004290ED0082913D094F84100012816D03E
:1017B000012010BD94F83E000128F9D184F83E20A4
:1017C0000FE094F83F000128F2D184F83F2008E0B0
:1017D00094F840000128EBD184F8402001E084F81F
:1017E00041200122206800F047FB16492068164A74
:1017F000884201D0904203D1436C43F400434364D8
:101800002068884213D0B0F1804F10D00F49884231
:101810000DD00F4988420AD00E49884207D0904225
:1018200005D00D49884202D00C49884204D1816814
:1018300001F00701062903D0016841F001010160B0
:10184000002010BD000001400004014000040040E1
:1018500000080040000C004000400140001800401B
:10186000F0B5574902688A427DD1564A1268CA6269
:10187000554B1968062901D100211960544A534C6F
:10188000F7EE000A92ED010A14340D4630EEC00A5C
:101890004E4904F1040C126840F205570CF104069D
:1018A000062D1DD2DFE805F0031D3349606C494E5B
:1018B00037687F1C37600E6846F055060E600E686C
:1018C00026F4A0660E6000EE902AF8EE600A20EE84
:1018D000200ABCEEC00A10EE101A2160CCF80020DD
:1018E00063E0D1F800C04CEA070CC1F800C00F68F3
:1018F00027F050070F6000EE902AF8EE600A20EE05
:10190000200ABCEEC00A10EE101A216013E00C6829
:1019100044F4AA640C600C6824F005040C6000EE2A
:10192000902AF8EE600A20EE200ABCEEC00A10EE03
:10193000101ACCF80010326037E00E6846F05506F9
:101940000E600E6826F4A0660E60226000EE902AFB
:10195000F8EE600A20EE200ABCEEC00A10EE101A63
:10196000CCF8001021E022E0D1F800C04CEA070CCE
:10197000C1F800C00F6827F050070F60226009E02F
:101980000C6844F4AA640C600C6824F005040C6034
:10199000CCF8002000EE902AF8EE600A20EE200A33
:1019A000BCEEC00A10EE101A31606D1C1D6000689C
:1019B0000949884203D109480168491C0160F0BD0A
:1019C00000100040100000200C0000202004014006
:1019D0000000002008000020000C00401C00002037
:1019E0000246002041B1042909D008290AD00C2957
:1019F00001D11068006C70471068406B7047106828
:101A0000806B70471068C06B70477047FEE700003E
:101A100030B58BB0002428480494059406940794AC
:101A2000089409940094019402944FF080410F258A
:101A30000394C0E900156FF07041C0E902410461F0
:101A40008461FFF7F1F908B172B6FEE74FF48050F8
:101A5000049004A91848FFF7FBFA08B172B6FEE734
:101A60001548FFF748FC08B172B6FEE7089408A9CC
:101A700011480994FFF730F908B172B6FEE7022069
:101A80000090CDE90104002269460B480394FFF75A
:101A9000A3FB08B172B6FEE70120CDE900400422A5
:101AA000694603950448FFF797FB002801D072B6FA
:101AB000FEE70BB030BD00003400002030B58BB025
:101AC00000242848049405940694079408940994E3
:101AD00000940194029422490F250394C0E9001553
:101AE0006FF07041C0E9024104618461FFF79CF925
:101AF00008B172B6FEE74FF48050049004A919486B
:101B0000FFF7A6FA08B172B6FEE71648FFF7F3FB37
:101B100008B172B6FEE7089408A912480994FFF7C5
:101B2000DBF808B172B6FEE70120CDE900400022E3
:101B300069460C48CDE90245FFF74EFB08B172B685
:101B4000FEE70220009001900422694603940548B4
:101B5000FFF742FB002801D072B6FEE70BB030BDA4
:101B6000000C00407C00002030B595B000240F949C
:101B700010941194129413941C2168461494FEF747
:101B8000EAFB202107A8FEF7E6FB30482E49322564
:101B9000C0E900154FF42061C0E9024104614461CD
:101BA0008461FFF741F908B172B6FEE74FF4805047
:101BB0000F900FA92548FFF74BFA08B172B6FEE760
:101BC0002248FFF7BAFD08B172B6FEE7139413A9D5
:101BD0001E481494FFF780F808B172B6FEE7602043
:101BE000CDE90004022002900820CDE90304059409
:101BF0000022694615480694FFF739FD08B172B610
:101C0000FEE7042269461148FFF731FD08B172B6BC
:101C1000FEE7082269460D48FFF729FD08B172B6B4
:101C2000FEE707940894CDE909450B940C9407A9A5
:101C300006480E94FFF726F808B172B6FEE703488F
:101C4000FFF7C2FC15B030BD000401400C010020BC
:101C500030B589B000242348059406940794049471
:101C60000094019402941E490F250394C0E90015C5
:101C70004FF6FF71C0E9024104618461FFF7D4F8B7
:101C800008B172B6FEE74FF48050049004A91548DD
:101C9000FFF7DEF908B172B6FEE71248FFF72BFB3B
:101CA00008B172B6FEE70120CDE900400022694686
:101CB0000C48CDE90245FFF78FFA08B172B6FEE78E
:101CC0000220009001900422694603940548FFF722
:101CD00083FA002801D072B6FEE709B030BD0000DB
:101CE0000040014054010020FEE7FEE770477047C6
:101CF000FEF796BC10B592B030216846FEF72BFB7C
:101D000014210CA8FEF727FB17480024016841F0B6
:101D100080510160006800F0805011901348016804
:101D200041F4804101600068069400F48040119005
:101D30000220009001200390102004906846FEF7D6
:101D4000D5FD08B172B6FEE70F20CDE90C040E9464
:101D50000F9400210CA81094FEF7FCFC002801D081
:101D600072B6FEE712B010BD40380240007000406D
:101D70000248016841F470010160704788ED00E09D
:101D80000148FFF76DBB0000540100200148FFF738
:101D900067BB0000340000200148FFF761BB000072
:101DA0007C0000200148FFF75BBB0000C40000205E
:101DB000F0B50268254C264D264E274F274B4FF095
:101DC000804CA04209D0604507D0A84205D0B0425F
:101DD00003D0B84201D0984204D122F0700E4A6874
:101DE00042EA0E02A0421BD0604519D0A84217D08B
:101DF000B04215D0B84213D0984211D0184DA84225
:101E00000ED0184DA8420BD0174DA84208D0174D40
:101E1000A84205D0164DA84202D0164DA84203D1C3
:101E200022F44075CA682A434D6922F080022A4391
:101E300002608A68C2620A688262A04201D0984247
:101E400001D10969016301214161F0BD0000014038
:101E50000004004000080040000C00400004014065
:101E6000004001400044014000480140001800408B
:101E7000001C00400020004010B501F01F030121AC
:101E8000046A99408C430462016A9A4011430162DA
:101E900010BD10B501F01F030421046A99408C4362
:101EA0000462016A9A401143016210BD10B5846852
:101EB00042EA032224F47F440A432243826010BD95
:101EC000826822F070020A4342F007018160704785
:101ED000F0B5026A22F001020262036A4268846974
:101EE000124E24F073050C682C4323F002058B6816
:101EF0002B430D4DA84201D0B04205D123F0080775
:101F0000CB683B4323F00403A84201D0B04205D183
:101F10004D6922F4407215438A692A434260846104
:101F2000496841630362F0BD0000014000040140C4
:101F3000F0B5026A22F010020262026A4368846904
:101F40000D6824F4E64444EA05248D6822F020025A
:101F500042EA05120F4D104EA84201D0B04206D100
:101F6000CF6822F0800242EA071222F04002A84223
:101F700001D0B04207D14D6923F4406343EA8503A1
:101F80008D6943EA85034360846149688163026225
:101F9000F0BD00000000014000040140F0B5026AFD
:101FA00022F480720262026A4368C46922F40072F9
:101FB00024F073050C68124E2C438D6842EA05220A
:101FC0000E4DA84201D0B04206D1CF6822F4006283
:101FD00042EA072222F48062A84201D0B04207D12F
:101FE0004D6923F4405343EA05138D6943EA051311
:101FF0004360C4614968C1630262F0BD00000140F2
:102000000004014030B5026A22F480520262046A80
:102010004268C3690D6823F4E64343EA05238D68EB
:1020200024F4005444EA0534084DA84202D0084D77
:10203000A84204D14D6922F4804242EA85124260EE
:10204000C36149680164046230BD000000000140C2
:102050000004014010B5036A046A24F0010404621C
:10206000846924F0F00444EA021423F00A020A43CB
:102070008461026210BD000070B5046A24F001049E
:1020800004628469056A154EB04214D0B0F1804FE5
:1020900011D0134EB0420ED0124EB0420BD0124EA1
:1020A000B04208D0114EB04205D0114EB04202D01D
:1020B000104EB04203D124F00304144301E044F075
:1020C00001041A0724F0F00444EA126225F00A031E
:1020D00001F00A0119438261016270BD00000140F4
:1020E0000004004000080040000C004000040140D3
:1020F000004001400018004010B5036A23F01003AF
:1021000003628369046A23F4704343EA023224F0D1
:10211000A00343EA01118261016210BD30B5046A77
:1021200024F0100404628469056A24F4407444EACB
:10213000022222F470444FF6FF7202EA0332224375
:10214000A02425F0A00304EA011119438261016271
:1021500030BDFEE70907090E002804DB00F1E0208E
:1021600080F80014704700F00F0000F1E02080F8C4
:10217000141D70471CB5FEF75BFAFFF7BBFD3E4828
:102180000024016841F001010160016801F00101D2
:102190000091016841F002010160016801F0020153
:1021A0000091016841F004010160006800F0040042
:1021B0000090FFF72DFCFFF781FCFFF749FD304849
:1021C00000942E49019401600F21C0E901144FF6DB
:1021D000FF718461C160FEF727FE08B172B6FEE7A9
:1021E0000094694626480194FEF776FD08B172B660
:1021F000FEE7FFF7B9FC224800214830FFF7CCFA90
:102200001F4800214830FEF7AFFD1D48042148302B
:10221000FFF7C2FA1A4804214830FEF7A5FD184816
:1022200008214830FFF7B8FA154808214830FEF772
:102230009BFD1348FEF7CCFE114800214838FFF7FC
:1022400089F80F4804214838FFF784F80C4800212A
:102250009038FFF77FF80A4804219038FFF77AF8A2
:10226000074800219030FFF775F8054804219030A9
:10227000FFF770F8FEE70000303802400010004021
:10228000C40000202DE9C04130B4DFF8A0C23CEA10
:10229000111418BF3CEA131400F0EC8081EA030526
:1022A0001CEA111444EAD57418BF1CEA131500F097
:1022B000C780A4EB05044FF0004545EAC12145EA7B
:1022C000C32341EA505143EA525304F17F749942C7
:1022D00004F500344FEAC0204FEAC22208BF904202
:1022E00000F09C804FEA13650FF24016765D4FEACE
:1022F000134506FB05F7C7F1807706FB07F74FEAA2
:10230000D737A7FB03687642C8F58038A7FB06CE0F
:1023100038BFA8F1010807FB08E64FF0000EA6FB46
:10232000028CE6FB03CEDCF1000CCEF1004E38BF90
:10233000AEF1010EA6FB0C584FF000074FF0000560
:10234000E6FB0E87A1FB08C6A0FB07CE16EB0E0628
:1023500045F10005E1FB076515F1E04E7EBFA4F5F0
:1023600080345FEA46066D4116F1800745F10005AD
:102370004FEA17274FEA066647EA0567A6F1DE46E9
:10238000B6F1805F4FEA15251FD9384624F0010CBD
:1023900005EBC471BCF1FE6F01EB0C1102D8F0BC6F
:1023A000BDE8008124425CBF01F5801E9EEAC47F27
:1023B00002D4F0BCBDE80081244238D4F0BCA1F1C5
:1023C000C041BDE8004100F045B94FEAD22242EADF
:1023D00043524FEAD323A7FB02864FEAD02040EABC
:1023E000415007FB03661EEA0E0F4FEAD12105FBA1
:1023F000026658BFA6EB0056B6EB00564FEA520EE7
:102400004EEAC37E18EB0E0E56EB530EBDD518EBFD
:1024100002085E417F1C55F10005B6E74FF48015B8
:102420004FF000074FF000064FF00008ADE7F0BC9A
:102430004FF0000001F1C04101F00041BDE8008112
:1024400011EA0C1F0CEA131500D00CE013EA0C1F64
:1024500000F025804FF00000F0BC81EA030101F09C
:102460000041BDE80081F0BCBDE8004181EA030104
:1024700000F0F0B8F0BCBDE8004170B500F09CF889
:10248000097EFC3E00F007B881EA03014FF000002E
:1024900001F00041704781EA030100F0DBB8F0BCB5
:1024A000BDE800414FF0000021497047FFFDFBF9F6
:1024B000F7F5F4F2F0EEEDEBE9E8E6E4E3E1E0DE77
:1024C000DDDBDAD8D7D5D4D3D1D0CFCDCCCBCAC8E9
:1024D000C7C6C5C4C2C1C0BFBEBDBCBBBAB9B8B710
:1024E000B6B5B4B3B2B1B0AFAEADACABAAA9A8A803
:1024F000A7A6A5A4A3A3A2A1A09F9F9E9D9C9C9BD1
:102500009A9999989797969595949393929191907B
:102510008F8F8E8E8D8C8C8B8B8A8989888887870C
:102520008685858484838382828181800000FF0781
:102530000000F87F4FEA41034FEA5353A3F580634D
:10254000D3F11E03C8BFD3F1210C0CDD4FF00042C4
:1025500042EAC12242EA505232FA03FC8CEAE17CA0
:10256000ACEBE1707047102BC4BF0020704703F53F
:10257000787CBCF1FF3F04D06FF0004282EA21007A
:10258000704770B500F018F8499224800020704719
:10259000F2E7B0FA80F310FA03F10AD0C3F11D0399
:1025A00003F580634FEA41504FEA035202EBD12119
:1025B00070474FF0000070470EF1020E2EF0030E30
:1025C0005EF8046B364205D4012A43EB030515F58A
:1025D000001F12D8012841EB010C1CF5001F0CD87C
:1025E0000ED14FEAD17C15F5001F0CEB4C0C0CF111
:1025F000020C08BF4CEBD37C04E04FF0080C01E068
:102600004FEAD37C0CEB4C0526FA05F606F00706DC
:10261000B6F1040C06D20EEB860CBDE870404CF00F
:10262000010C6047DFE80CF0090B02024FF000419B
:102630004FF00000A1F5002170BD19461046012899
:1026400051EB010418BFD4F5001484BF002001F041
:10265000004170BD0808A0F500114FEA3101704734
:102660004FF04070E1EE100A7047000000000000DB
:102670000000010203040607080900009C26000868
:102680000000002034000000C4010008D02600082B
:1026900034000020CC070000E0010008000A000020
:1026A0000000003F0000000000000000FFFF0000ED
:1026B000000000000000000000000000000000001A
:1026C0000100000010000000000000000024F400E1
:040000050800018965
:00000001FF
