:020000040800F2
:100000001809002029020008792B0008952600080D
:10001000752B00081F0400082B31000800000000A9
:100020000000000000000000000000007F2B00081E
:1000300045040008000000007D2B0008812B00080B
:10004000430200084302000843020008430200087C
:10005000430200084302000843020008430200086C
:10006000430200084302000843020008430200085C
:10007000430200084302000843020008430200084C
:10008000430200084302000843020008430200083C
:100090002504000843020008350400084302000854
:1000A000512C0008430200084302000843020008E4
:1000B000612C0008430200084302000843020008C4
:1000C00043020008430200084302000843020008FC
:1000D00043020008430200084302000843020008EC
:1000E00043020008430200084302000843020008DC
:1000F00043020008430200084302000843020008CC
:100100004302000843020008712C00084302000863
:100110004302000843020008812C0008912C0008CB
:10012000430200084302000843020008430200089B
:100130004302000800000000000000004302000825
:10014000430200084302000843020008430200087B
:10015000430200084302000843020008430200086B
:10016000430200084302000843020008430200085B
:1001700043020008430200080000000000000000E5
:10018000430200084302000800F002F800F03CF8C7
:100190000AA090E8000C82448344AAF10107DA45E2
:1001A00001D100F031F8AFF2090EBAE80F0013F0F8
:1001B000010F18BFFB1A43F001031847943E0000DB
:1001C000B43E0000103A24BF78C878C1FAD852076C
:1001D00024BF30C830C144BF04680C6070470000C1
:1001E0000023002400250026103A28BF78C1FBD840
:1001F000520728BF30C148BF0B6070471FB503F0DE
:10020000F0FD1FBD10B510BD00F0CFF81146FFF78F
:10021000F5FF03F049F800F0EDF803B4FFF7F2FF43
:1002200003BC00F0F5F80000094880470948004782
:10023000FEE7FEE7FEE7FEE7FEE7FEE7FEE7FEE796
:10024000FEE7FEE704480549054A064B70470000F3
:100250003D2C00088901000818030020180900201F
:10026000180500201805002053EA020C00F06980F0
:100270002DE9F04B4FF00006002B1FBFB3FA83F5BA
:1002800003FA05F424FA05F65E4012BF1643B2FAEB
:1002900082F502FA05F4C5F120051EBF22FA05FC1D
:1002A00044EA0C04203556EA044C4FEA144418BFC3
:1002B000641C4FF000084FF00009904271EB030CF2
:1002C00039D3002919BFB1FA81F701FA07F6B0FA5C
:1002D00080F700FA07F6C7F120071EBF20FA07FCD7
:1002E00046EA0C062037B6FBF4FCA7EB0507103FE7
:1002F00007F01F0BCBF120060CFA0BFB2CFA06F6CD
:1003000044BFB3460026202FA4BF5E464FF0000B2B
:100310005BEA060C08BF4FF0010B19EB0B09ABFBB6
:10032000027C48EB0608C01B06FB02CC0BFB03CC8F
:1003300071EB0C01C1E70B46024641464846BDE859
:10034000F08B13B54FF000004FF00001AFF30080C9
:10035000BDE81C4070474FF0000200B513469446BC
:100360009646203922BFA0E80C50A0E80C50B1F10D
:100370002001BFF4F7AF090728BFA0E80C5048BF21
:100380000CC05DF804EB890028BF40F8042B08BFBF
:10039000704748BF20F8022B11F0804F18BF00F8BB
:1003A000012B7047704770477047754600F02CF876
:1003B000AE4605006946534620F00700854618B052
:1003C00020B5FFF73FFFBDE820404FF000064FF09B
:1003D00000074FF000084FF0000B21F00701AC467A
:1003E000ACE8C009ACE8C009ACE8C009ACE8C00999
:1003F0008D46704710B50446AFF300802046BDE837
:100400001040FFF70ABF000000487047B802002004
:1004100001491820ABBEFEE726000200704700BF6E
:10042000FEE7000010B5024800F011F810BD000012
:100430008400002010B5024800F009F810BD00004B
:1004400084000020704772B600BFFEE770472DE9B8
:10045000F05F04460025206846692068D0F80490C3
:10046000206887682068D0F80CA02068D0F810B009
:100470002068D0F8188006F00100002855D007F059
:100480000100C0B101202168886007F0020018B1A6
:10049000204600F075FA0EE007F0040010B145F4B4
:1004A000006508E007F0080010B145F4805502E04F
:1004B000204600F064FA07F48070C8B14FF48070F1
:1004C0002168886007F4007018B1204600F05AFADD
:1004D0000EE007F4806010B145F4005508E007F421
:1004E000006010B145F4804502E0204600F049FA72
:1004F00007F48030C8B14FF480302168886007F479
:10050000003018B1204600F03FFA0EE007F48020DA
:1005100010B145F4004508E007F4002010B145F49F
:10052000803502E0204600F02EFA06F0080038B1CF
:100530000AF0100020B145F4007510202168C86051
:1005400006F0040040B10AF0080028B10820216834
:10055000C860204600F00EFA06F0020038B12068AC
:10056000C06800F0030010B1204600F004FA06F065
:10057000400038B10BF0100020B145F48065102028
:100580002168086106F0200040B10BF0080028B196
:10059000082021680861204600F0EEF906F01000FE
:1005A00038B12068006900F0030010B1204600F067
:1005B000E4F906F4003040B109F0100028B1102031
:1005C00021684860204600F0D9F906F4803040B137
:1005D00009F0080028B1082021684860204600F092
:1005E000D4F906F4004088B309F0040078B306F4A7
:1005F000807020B108F0010008B145F0010506F453
:10060000007020B108F0020008B145F0020506F4C0
:10061000806020B108F0040008B145F0040506F43C
:100620000060A0B108F0700088B108F070004028A8
:1006300017D006DC10280BD020280CD0302819D178
:100640000CE0502810D0602814D110E01DE019E013
:1006500045F008050FE045F010050CE045F02005D9
:1006600009E045F0400506E045F0800503E045F46B
:10067000807500E000BF00BF2068806920F0700036
:10068000216888610420216848602DB1606A284390
:1006900060622046FFF7DAFEBDE8F09F70B50446C1
:1006A0000CB9012070BD94F8200010B9204600F06C
:1006B000AFF82068006820F002002168086000F0B0
:1006C0006DFA05460DE000F069FA401B0A2808D9CA
:1006D000606A40F400306062052084F82000012048
:1006E000E0E72068406800F002000028EBD12068B5
:1006F000006840F001002168086000F04FFA0546EC
:100700000DE000F04BFA401B0A2808D9606A40F45B
:1007100000306062052084F820000120C2E72068D4
:10072000406800F001000028EBD0207E012806D1AF
:100730002068006840F080002168086005E02068BB
:10074000006820F0800021680860607E012806D1E2
:100750002068006840F040002168086005E02068DB
:10076000006820F0400021680860A07E012806D1C2
:100770002068006840F020002168086005E02068DB
:10078000006820F0200021680860E07E012806D182
:100790002068006820F010002168086005E02068EB
:1007A000006840F0100021680860207F012806D111
:1007B0002068006840F008002168086005E02068B3
:1007C000006820F0080021680860607F012806D1D9
:1007D0002068006840F004002168086005E0206897
:1007E000006820F0040021680860D4E90201084391
:1007F00021690843616908436168491E084321680B
:10080000C86100206062012084F82000002049E7D0
:1008100010B586B00446142101A8FFF79CFD4F498E
:10082000206888424AD14E480068401C4C49086004
:100830000846006801280FD100BF002000904948F9
:10084000006840F00070474908600846006800F002
:100850000070009000BF00BF00BF00200090414822
:100860001038006840F001003E4910390860084621
:10087000006800F00100009000BF00BF4FF4C050BE
:100880000190022002900020039003200490092090
:10089000059001A9344800F079F80022114614208F
:1008A00000F006FA142000F0F3F900221146162099
:1008B00000F0FEF9162000F0EBF94CE02B4920681F
:1008C000884248D100BF002000902648006840F0D0
:1008D0008060244908600846006800F0806000904D
:1008E00000BF00BF1E480068401C1D490860084644
:1008F000006801280FD100BF00200090194800684F
:1009000040F00070174908600846006800F0007069
:10091000009000BF00BF00BF0020009011481038B9
:10092000006840F002000F4910390860084600686E
:1009300000F00200009000BF00BF60200190022084
:10094000029000200390032004900920059001A943
:10095000074800F01BF806B010BD0000006400401E
:100960007000002040380240000002400068004053
:1009700000040240704770477047704770477047E7
:10098000704770477047704770477047F8B5024628
:100990000B460025002400200021DEE0012606FA97
:1009A00001F51E6806EA0504AC4275D11E7906F011
:1009B0000306012E04D01E7906F00306022E13D181
:1009C00090684F000326BE40B0434F00DE68BE4033
:1009D00030439060506801268E40B0431E79C6F3C4
:1009E00000168E40304350601E7906F00306032E39
:1009F00009D0D0684F000326BE40B0434F009E6828
:100A0000BE403043D0601E7906F00306022E13D19B
:100A1000CF0802F1200656F827004E07F70E0F26E2
:100A2000BE40B0434F07FF0E1E69BE403043CF08A3
:100A300002F1200646F8270010684F000326BE404A
:100A4000B0431E7906F003064F00BE4030431060ED
:100A50005E6806F08056B6F1805F7DD100BF00264B
:100A60000096404E366846F480463E4F3E603E4615
:100A7000366806F48046009600BF00BF3A4E8F08E5
:100A800056F827008E07370F0F26BE40B043374E6B
:100A9000B24202D1002624E05EE0354EB24201D1DE
:100AA00001261EE0334EB24201D1022619E0324E39
:100AB000B24201D1032614E0304EB24201D10426E5
:100AC0000FE02F4EB24201D105260AE02D4EB24270
:100AD00001D1062605E02C4EB24201D1072600E0E6
:100AE00008268F073F0FBE4030431F4E8F0846F841
:100AF0002700264E3068A0435E6806F48036B6F5BF
:100B0000803F00D12043214E3060361D3068A04325
:100B10005E6806F40036B6F5003F00D120431B4E58
:100B2000361D3060361D3068A0435E6806F48016BE
:100B3000B6F5801F00D12043144E08363060361DB4
:100B40003068A0435E6806F40016B6F5001F00D1B9
:100B500020430E4E0C363060491C1029FFF41EAFA6
:100B6000F8BD00004438024008380140000002404F
:100B70000004024000080240000C02400010024045
:100B80000014024000180240001C0240003C0140DA
:100B90000AB1816101E00B0483617047014800687C
:100BA000704700007400002003480068034909787A
:100BB0000844014908607047740000207C00002050
:100BC00010B50D48006840F400700B4908600846F5
:100BD000006840F4806008600846006840F4807057
:100BE0000860032000F0A2F80F2000F007F800F0E2
:100BF0002BF8002010BD0000003C024070B50446F8
:100C00000E4800784FF47A71B1FBF0F00C49096896
:100C1000B1FBF0F5284600F005FC08B1012070BDDD
:100C2000102C07D200222146501E00F041F8054842
:100C3000046001E00120F2E70020F0E77C000020E2
:100C4000800000207800002008B500BF0020009040
:100C50000E48006840F480400C490860084600686F
:100C600000F48040009000BF00BF00BF0020009053
:100C7000081F006840F08050091F0860084600689F
:100C800000F08050009000BF00BF08BD4438024013
:100C900001460846002809DB00F01F0301229A40A4
:100CA00043099B0003F1E023C3F8002100BF704714
:100CB0002DE9F05F80460D461646002702F038FA0F
:100CC000074639462A46334601F00700C0F1070AB5
:100CD000BAF1040F02D94FF0040A01E0C0F1070A8B
:100CE000D14600F1040ABAF1070F02D24FF0000A10
:100CF00001E0A0F1030AD4464FF0010A0AFA09FA0A
:100D0000AAF1010A0AEA020A0AFA0CFA4FF0010BE8
:100D10000BFA0CFBABF1010B0BEA030B4AEA0B04D9
:100D20002146404602F00CFABDE8F09F00BF00F0FB
:100D30000702064B19684FF6FF031940044B0B439B
:100D400043EA0221014B196000BF70470CED00E03F
:100D50000000FA0570B504460D460CB9012070BDBF
:100D60005848006800F00700A84209D255490D70A4
:100D70000846006800F00700A84201D00120EEE715
:100D8000207800F0020002281DD1207800F0040035
:100D9000042805D14C48006840F4E0504A490860F6
:100DA000207800F00800082805D14748006840F482
:100DB0006040454908604448006820F0F000A168A0
:100DC000084341490860207800F00100A8B360683A
:100DD000012807D13C4808380068C0F34040B8B942
:100DE0000120BCE76068022802D06068032807D1B0
:100DF000354808380068C0F3406048B90120AEE7C4
:100E0000314808380068C0F3400008B90120A6E75F
:100E10002D48006820F00300616808432A490860F3
:100E2000FFF7BCFE064609E0FFF7B8FE801B41F263
:100E30008831884202D9032091E707E02248006800
:100E400000F00C006168B0EB810FEDD11D48006827
:100E500000F00700A84209D91A490D700846006839
:100E600000F00700A84201D0012078E7207800F0C8
:100E70000400042807D11448006820F4E050E16819
:100E8000084311490860207800F00800082808D1BC
:100E90000D48006820F46040216940EAC1000A4919
:100EA000086000F019F808490968C1F30311074AFE
:100EB000515CC8400649086006480068FFF79EFE7E
:100EC00000204CE7003C0240083802403640000851
:100ED00080000020780000202DE9F0470024002544
:100EE0000026A1462548006800F00C0020B1042827
:100EF00005D008283AD105E0DFF8849039E0DFF822
:100F0000849036E01D48001F006800F03F041B4835
:100F1000001F006800F4800078B11A481749091FC3
:100F20000968C1F38811A0FB017001462246002325
:100F30003846FFF799F905460EE011480F49091F99
:100F40000968C1F38811A0FB017001462246002305
:100F50003846FFF789F905460848001F0068C0F3C6
:100F60000140401C4600B5FBF6F902E0DFF81090A6
:100F700000BF00BF4846BDE8F087000008380240C7
:100F80000024F40040787D01F8B504460CB9012036
:100F9000F8BD207800F00100002874D0F9480068FE
:100FA00000F00C0004280DD0F648006800F00C009A
:100FB000082813D1F348001F006800F48000B0F542
:100FC000800F0BD1EF4808380068C0F3404000287C
:100FD00059D06068002856D10120D9E700BF606869
:100FE000B0F5803F08D1E7480838006840F4803009
:100FF000E449083908601EE06068B0F5A02F0DD103
:10100000E0480838006840F48020DE49083908606C
:101010000846006840F4803008600CE0D948083881
:10102000006820F48030D749083908600846006815
:1010300020F48020086000BF606890B1FFF7AEFD2B
:10104000054606E0FFF7AAFD401B642801D90320EE
:101050009EE7CC4808380068C0F340400028F1D033
:1010600011E0FFF79BFD054606E0FFF797FD401BEB
:10107000642801D903208BE7C24808380068C0F310
:1010800040400028F1D1207800F0020002285FD112
:10109000BC48006800F00C0058B1BA48006800F085
:1010A0000C0008281CD1B748001F006800F480001D
:1010B000B0B9B44808380068C0F3400020B1E06817
:1010C000012801D0012063E7AE480838006820F00D
:1010D000F800216940EAC100AA490839086037E0F0
:1010E000E06800B30120A8490860FFF757FD0546F6
:1010F00006E0FFF753FD401B022801D9032047E714
:10110000A04808380068C0F340000028F1D09D488E
:101110000838006820F0F800216940EAC1009949C8
:101120000839086014E0002097490860FFF736FD91
:10113000054606E0FFF732FD401B022801D90320D7
:1011400026E7904808380068C0F340000028F1D135
:10115000207800F0080008282CD16069A8B101208F
:101160008A490860FFF71AFD054606E0FFF716FDFD
:10117000401B022801D903200AE782486C3000682E
:10118000C0F340000028F1D014E000207F4908603F
:10119000FFF704FD054606E0FFF700FD401B0228AF
:1011A00001D90320F4E677486C300068C0F34000B2
:1011B0000028F1D1207800F00400042870D1002725
:1011C00070483830006800F0805090B900BF0020AF
:1011D00000906C483830006840F0805069493831E0
:1011E00008600846006800F08050009000BF00BF13
:1011F00001276748006800F48070B0B9644800684F
:1012000040F4807062490860FFF7C8FC054606E0BC
:10121000FFF7C4FC401B022801D90320B8E65C4854
:10122000006800F480700028F2D000BFA068012898
:1012300008D154486830006840F0010051496831D5
:1012400008601DE0A06805280DD14E486830006890
:1012500040F004004B49683108600846006840F0DF
:10126000010008600CE047486830006820F0010089
:101270004449683108600846006820F004000860AE
:1012800000BFA068A8B1FFF789FC054609E0FFF799
:1012900085FC401B41F28831884202D9032077E661
:1012A00026E0384868300068C0F340000028EED0DF
:1012B00013E0FFF773FC054608E0FFF76FFC401BE7
:1012C00041F28831884201D9032061E62D48683017
:1012D0000068C0F340000028EFD1012F07D1294852
:1012E0003830006820F0805026493831086000BF4F
:1012F000A069002845D02348006800F00C000828A9
:101300005DD0A069022845D100201F490866FFF77B
:1013100045FC054606E0FFF741FC401B022801D9C9
:10132000032035E6174808380068C0F340600028FD
:10133000F1D1D4E907010843616A40EA8111012231
:10134000A06AC2EB500041EA00412C20005D41EA56
:1013500000600C49091F086001200B490866FFF76F
:101360001DFC054606E0FFF719FC401B022801D9C9
:1013700003200DE6034808380068C0F340600028E9
:10138000F1D049E00838024000004742800E474251
:1013900000700040002021490866FFF7FFFB05466A
:1013A00006E0FFF7FBFB401B022801D90320EFE515
:1013B0001B480068C0F340600028F2D12CE0A0690F
:1013C000012800D1E4E51648001D0668A06901283F
:1013D00020D006F48001E06981421BD106F03F0174
:1013E000206A814216D147F6C0703040616AB0EB86
:1013F000811F0FD106F440310122A06AC2EB5000D8
:10140000B1EB004F06D106F070612C20005DB1EB0E
:10141000006F01D00120BBE50020B9E50000474284
:101420000038024070B504462546681EB0F1807F42
:1014300001D301200FE0681E4FF0E02148610F2129
:101440004FF0FF3001F07CFE00204FF0E02188617A
:1014500007200861002070BD7047704710B5034633
:10146000002200BF93F83C00012801D1022010BDEA
:10147000012083F83C0000BF22F0FF00CC6840EA66
:10148000040222F440708C6840EA040222F4806076
:101490004C6840EA040222F400600C6840EA04024E
:1014A00022F480500C6940EA040222F400504C6996
:1014B00040EA040222F48040CC6940EA0402186841
:1014C000426400BF002083F83C0000BF00BFCEE7AD
:1014D00030B502460B4600BF92F83C00012801D10E
:1014E000022030BD012082F83C0000BF022082F8BB
:1014F0003D00106844681068816824F07004186822
:10150000044310684460184D1068A8421BD010684E
:10151000B0F1804F17D0154D1068A84213D0144D6C
:101520001068A8420FD0134D1068A8420BD0124D7E
:101530001068A84207D0114D1068A84203D0104D82
:101540001068A84205D121F0800158680143106855
:101550008160012082F83D0000BF002082F83C003D
:1015600000BF00BFBDE700000000014000040040D4
:1015700000080040000C0040000401400040014011
:101580000018004070B504460D4615B994F84200A5
:101590000BE0042D02D14320005D06E0082D02D1AE
:1015A0004420005D01E04520005D012801D00120BC
:1015B00070BD1DB9022084F842000EE0042D03D155
:1015C00002214320015508E0082D03D102214420C7
:1015D000015502E0022145200155042229462068D8
:1015E00001F0DBFB2068406C40F400402168486457
:1015F0001A49206888421BD02068B0F1804F17D06C
:1016000017492068884213D01649206888420FD0B5
:101610001549206888420BD014492068884207D0B9
:1016200013492068884203D01249206888420CD1AF
:101630002068806800F00706062E0CD0206800683D
:1016400040F001002168086005E02068006840F073
:101650000100216808600020AAE7000000000140A6
:101660000004004000080040000C0040000401405D
:10167000004001400018004010B504460CB901209C
:1016800010BD94F83D0028B9002084F83C002046A5
:1016900000F026F8022084F83D00211D206801F0AA
:1016A000FFFA012084F8460000BF84F83E000121C3
:1016B0003F200155402001554120015500BF00BF8A
:1016C000012084F842004320015544200155452063
:1016D000015500BF012084F83D000020D0E7000044
:1016E00010B586B00446142101A8FEF734FE206828
:1016F000B0F1804F37D100BF0020009080480068D3
:1017000040F001007E4908600846006800F00100D2
:10171000009000BF00BF00BF002000907848103844
:10172000006840F0010076491039086008460068FA
:1017300000F00100009000BF00BF02200190029065
:1017400001200390032004900120059001A96D4819
:10175000FFF71CF9002211461C20FFF7A9FA1C20F4
:10176000FFF796FAC9E068492068884238D100BF7F
:10177000002000906248006840F00800604908605E
:101780000846006800F00800009000BF00BF00BFDE
:10179000002000905A481038006840F00100584975
:1017A000103908600846006800F00100009000BF92
:1017B00000BF01200190022002900120039003202D
:1017C00004900220059001A94E48FFF7DFF800229F
:1017D00011463220FFF76CFA3220FFF759FA8CE0FD
:1017E0004A492068884218D100BF00200090444830
:1017F000006840F01000424908600846006800F0A8
:101800001000009000BF00BF002211463620FFF7F5
:101810004FFA3620FFF73CFA6FE03D4920688842D6
:1018200018D100BF002000903548006840F020002B
:10183000334908600846006800F02000009000BFAF
:1018400000BF002211463720FFF732FA3720FFF79A
:101850001FFA52E02F492068884211D100BF0020B2
:1018600000902748001D006840F002002449091D2F
:1018700008600846006800F00200009000BF3CE0ED
:1018800025492068884238D100BF002000901C48BC
:10189000001D006840F480301949091D08600846A1
:1018A000006800F48030009000BF00BF00BF00203F
:1018B000009013481038006840F0010010491039BA
:1018C00008600846006800F00100009000BF00BFFB
:1018D0000420019002200290012003900320049034
:1018E000059001A90748FFF751F80022114618207A
:1018F000FFF7DEF91820FFF7CBF906B010BD0000A6
:101900004038024000000240000C0040001000403F
:10191000001400400004014000400140014691F8DD
:101920003D00012801D001207047022081F83D00D0
:101930000868C06840F001000B68D8601A4B08685E
:1019400098421BD00868B0F1804F17D0174B086839
:10195000984213D0164B086898420FD0154B086870
:1019600098420BD0144B0868984207D0134B086874
:10197000984203D0124B086898420CD108688068DE
:1019800000F00702062A0CD00868006840F0010049
:101990000B68186005E00868006840F001000B68FB
:1019A00018600020C0E70000000001400004004073
:1019B00000080040000C00400004014000400140CD
:1019C000001800402DE9F04104460D4600BF94F890
:1019D0003C00012802D10220BDE8F081012084F8FA
:1019E0003C0000BF022084F83D002068866826F095
:1019F000770626F47F46206886602868502833D012
:101A00000CDC202850D004DC00284BD0102851D109
:101A100049E0302849D040284CD139E060282DD009
:101A2000702807D0B0F5805F03D0B0F5005F41D1DA
:101A30000DE040E0D5E902136A68206801F0BEF9C4
:101A40002068866846F077062068866033E0D5E92E
:101A500002136A68206801F0B1F92068806840F4D8
:101A600080402168886026E0EA686968206801F0A3
:101A700095FA5021206801F0ACF91CE0EA68696829
:101A8000206801F0E7FA6021206801F0A2F912E075
:101A9000EA686968206801F081FA4021206801F055
:101AA00098F908E000BF00BF00BF2968206801F076
:101AB00090F900E000BF00BF012084F83D0000BFA6
:101AC000002084F83C0000BF00BF85E710B52DED75
:101AD000068B044660492068884248D1207F01284F
:101AE00046D15E49087000205B49243108605C499A
:101AF00008605C4800685C49B1F90010084400289F
:101B000013DB584800685849B1F900100844C02850
:101B10000BDA56480068012807D15248006852493C
:101B2000B1F900100844524908604E480068C0F1FD
:101B3000BF004D49B1F90010401A6AD44948006805
:101B4000C0F1BF004849B1F90010401AC02860DA5E
:101B500046480068401C00285BD142480068C0F13C
:101B6000BF004149B1F90010401A4149086050E0F6
:101B7000207F02284DD100203849087004213D48BB
:101B800000F06EFD3B49C968354A126801FB02004E
:101B900000EE100AB8EE400A374880ED000A3748D8
:101BA00090ED000A364880ED000A3348006802F0E4
:101BB000A7F841EC190B53EC192B9FED320B51ECAC
:101BC000100B01F02DFD41EC180B01F04FFC2B49DF
:101BD00008602E4890ED000A2D4880ED000A084666
:101BE000006802F08DF841EC1A0B9FED2A0B53ECC4
:101BF000102B01F09DFE41EC190B9FED280B53ECCF
:101C0000102B01F065FC41EC180B01F02FFC1F4973
:101C100008602068B0F1804F0BD1207F012802D1ED
:101C20002049087005E0207F022802D100201D49CC
:101C300008701D49206888420BD1207F012802D1FD
:101C40001A49087005E0207F022802D100201749B8
:101C50000870BDEC068B10BD000C00400C0000208D
:101C6000100000201C000020580000202000002050
:101C7000000000201C0100200800002014000020AB
:101C80003800002000000000889B634140000020D5
:101C900044000020CDCCCCCCCCCC164000000000C1
:101CA000000056400D000020004001400E000020C2
:101CB0002DE9F04104460D46164600BF94F83C005D
:101CC000012802D10220BDE8F081012084F83C0007
:101CD00000BF96B9EB68D5E90012206801F072F9EF
:101CE0002068806920F00C00216888612068806984
:101CF000A9680843216888613DE0042E13D1EB6890
:101D0000D5E90012206801F0B9F92068806920F453
:101D100040602168886120688069A96840EA0120E4
:101D20002168886127E0082E12D1EB68D5E90012FE
:101D3000206801F0C0F92068C06920F00C0021681B
:101D4000C8612068C069A96808432168C86112E0B9
:101D5000EB68D5E90012206801F0C9F92068C06974
:101D600020F440602168C8612068C069A96840EA21
:101D700001202168C86100BF002084F83C0000BF3A
:101D800000BFA0E710B504460CB9012010BD94F8BF
:101D90003D0028B9002084F83C00204600F025F8DA
:101DA000022084F83D00211D206800F079FF012009
:101DB00084F8460000BF84F83E0001213F20015511
:101DC000402001554120015500BF00BF012084F88B
:101DD000420043200155442001554520015500BFD4
:101DE000012084F83D000020D0E770472DE9F04144
:101DF00004460D4615B994F83E000BE0042D02D1BF
:101E00003F20005D06E0082D02D14020005D01E08A
:101E10004120005D074615B994F842000BE0042DFF
:101E200002D14320005D06E0082D02D14420005D70
:101E300001E04520005D8046012F02D1B8F1010F7D
:101E400002D00120BDE8F0811DB9022084F83E00D7
:101E50000EE0042D03D102213F20015508E0082D9A
:101E600003D102214020015502E002214120015509
:101E70001DB9022084F842000EE0042D03D1022196
:101E80004320015508E0082D03D1022144200155CB
:101E900002E002214520015535B1042D0BD0082D5B
:101EA00010D00C2D1CD114E02068C06840F0020056
:101EB0002168C86015E02068C06840F0040021680F
:101EC000C8600EE02068C06840F008002168C86063
:101ED00007E02068C06840F010002168C86000E09A
:101EE00000BF00BF01222946206800F045FF1A49C3
:101EF000206888421BD02068B0F1804F17D0174966
:101F00002068884213D01649206888420FD01549AE
:101F1000206888420BD014492068884207D01349B2
:101F20002068884203D01249206888420CD120687A
:101F3000806800F00706062E0CD02068006840F08C
:101F400001002168086005E02068006840F0010099
:101F500021680860002075E700000140000400408F
:101F600000080040000C0040000401400040014017
:101F70000018004010B5044620680069C0F3400016
:101F8000D8B12068C068C0F34000B0B16FF0020063
:101F900021680861012020772068806900F0030033
:101FA00018B12046FFF792FD05E0204600F01CF92D
:101FB000204600F0CCF90020207720680069C0F3AB
:101FC0008000D8B12068C068C0F38000B0B16FF065
:101FD000040021680861022020772068806900F4ED
:101FE000407018B12046FFF771FD05E0204600F073
:101FF000FBF8204600F0ABF900202077206800694C
:10200000C0F3C000D8B12068C068C0F3C000B0B150
:102010006FF0080021680861042020772068C069FB
:1020200000F0030018B12046FFF750FD05E0204600
:1020300000F0DAF8204600F08AF9002020772068C6
:102040000069C0F30010D8B12068C068C0F3001068
:10205000B0B16FF010002168086108202077206877
:10206000C06900F4407018B12046FFF72FFD05E06D
:10207000204600F0B9F8204600F069F900202077EA
:102080002068006900F0010058B12068C06800F0C5
:10209000010030B16FF0010021680861204600F0B6
:1020A000DDF920680069C0F3C01058B12068C0682D
:1020B000C0F3C01030B16FF0800021680861204685
:1020C000FFF7CAF920680069C0F3801058B1206892
:1020D000C068C0F3801030B16FF040002168086123
:1020E000204600F0D6FA20680069C0F3401058B1CD
:1020F0002068C068C0F3401030B16FF02000216844
:1021000008612046FFF7A9F910BD000010B586B0A0
:102110000446142101A8FEF71EF92E4920688842C2
:1021200056D100BF002000902B48006840F001000D
:10213000294908600846006800F00100009000BFCF
:1021400000BF00BF002000900846006840F0020079
:1021500008600846006800F00200009000BF00BF61
:1021600000BF002000900846006840F004000860AE
:102170000846006800F00400009000BF00BF802007
:10218000019002200290002003900490032005900B
:1021900001A91248FEF7FAFB4FF4404001900220DB
:1021A00002900020039004900320059001A90C48A0
:1021B000FEF7ECFB4FF4E07001900220029000204B
:1021C000039004900320059001A90648FEF7DEFB6A
:1021D00006B010BD0004014030380240000002404B
:1021E0000004024000080240704770B504460D46E6
:1021F000164600BF94F83C00012801D1022070BDB2
:10220000012084F83C0000BF36B1042E1BD0082EFC
:1022100031D00C2E5ED145E02946206800F0E2FD69
:102220002068806940F00800216888612068806922
:1022300020F00400216888612068806929690843CA
:102240002168886147E02946206800F003FE206885
:10225000806940F40060216888612068806920F40A
:1022600080602168886120688069296940EA0120CE
:10227000216888612FE02946206800F029FE206847
:10228000C06940F008002168C8612068C06920F07A
:1022900004002168C8612068C06929690843216871
:1022A000C86118E02946206800F04EFE2068C06929
:1022B00040F400602168C8612068C06920F4806033
:1022C0002168C8612068C069296940EA0120216845
:1022D000C86100E000BF00BF00BF002084F83C00E0
:1022E00000BF00BF8BE710B504460CB9012010BD3C
:1022F00094F83D0028B9002084F83C00204600F006
:1023000025F8022084F83D00211D206800F0C8FC5B
:10231000012084F8460000BF84F83E0001213F20E0
:102320000155402001554120015500BF00BF01204B
:1023300084F84200432001554420015545200155B1
:1023400000BF012084F83D000020D0E770477047AF
:1023500070B504460D4615B994F83E000BE0042D07
:1023600002D13F20005D06E0082D02D14020005D33
:1023700001E04120005D012801D0012070BD1DB9A0
:10238000022084F83E000EE0042D03D102213F20FC
:10239000015508E0082D03D102214020015502E03B
:1023A00002214120015501222946206800F0E4FC69
:1023B00023492068884203D022492068884201D1FD
:1023C000012000E0002028B12068406C40F400406B
:1023D000216848641A49206888421BD02068B0F1FF
:1023E000804F17D018492068884213D017492068B9
:1023F00088420FD01649206888420BD011492068C6
:10240000884207D013492068884203D012492068C7
:1024100088420CD12068806800F00706062E0CD098
:102420002068006840F001002168086005E020682D
:10243000006840F001002168086000209EE700006D
:10244000000001400004014000040040000800407A
:10245000000C0040004001400018004010B5044648
:102460006F492068884270D16E480078012814D1E5
:102470006D4890ED000A6D48D0ED000A80EE201AFC
:10248000B1EE0C0A21EE000AF1EE0C0A80EE201AE1
:10249000BDEEC10A664880ED000A654800686049E3
:1024A000C8626448007888626348007863490860BD
:1024B0004FF46170091D086061480068012845D12A
:1024C00000206049088060480068401C5E49086040
:1024D0000846006800EB40005C49085C5C490968FC
:1024E0004843FF21B0FBF1F0C0F5617053490C3156
:1024F00008605548006800EB4000544908444078A3
:10250000534909684843FF21B0FBF1F0C0F5617001
:102510004A49103108604C48006800EB40004B49C4
:10252000084480784A4909684843FF21B0FBF1F02C
:10253000C0F5617041491431086043480068BF2804
:1025400053D14FF0FF30404908604EE03C480068EE
:10255000401C002849D17D203A4908803A4800684B
:10256000401C10B901203849086037480068401EF7
:10257000354908600846006800EB40003349085CB4
:10258000334909684843FF21B0FBF1F0C0F56170A1
:102590002A490C3108602C48006800EB40002B49A8
:1025A000084440782A4909684843FF21B0FBF1F00C
:1025B000C0F561702149103108602348006800EBC4
:1025C0004000224908448078214909684843FF2196
:1025D000B0FBF1F0C0F561701849143108601A4879
:1025E000006810B9C020184908601A49206888425C
:1025F00004D119480068401C174908601749206831
:1026000088420BD100F0B0FD00F0DEFE00F028FEA5
:1026100000F0E8FD00F00AFE00F0ACFE10BD000086
:10262000001000402A0000202C0000201400002090
:102630000400002029000020280000202804014078
:10264000200000205800002000000020F63D000877
:1026500018000020000C0040100000200014004072
:102660000246002031B1042907D0082908D00C29DE
:102670000CD108E01368586B09E01368986B06E00A
:102680001368D86B03E01368186C00E000BF00BF4C
:102690007047704700BFFEE710B50E480E4908604E
:1026A0000420486000210C488160C1604FF4602123
:1026B00001614FF4801141610021017641768176FC
:1026C000C17601774177FDF7E9FF08B1FDF7BBFE61
:1026D00010BD0000006400408400002010B50B48CD
:1026E0000B49086010204860002109488160C160E2
:1026F00001614161017641768176C176017741774A
:10270000FDF7CCFF08B1FDF79EFE10BD006800404C
:10271000AC00002000B587B0142102A8FDF71BFE15
:1027200000BF002001902648006840F001002449C5
:1027300008600846006800F00100019000BF00BF7B
:1027400000BF002001900846006840F002000860C9
:102750000846006800F00200019000BF00BF00BF03
:10276000002001900846006840F004000860084618
:10277000006800F00400019000BF00BF0022882123
:102780001048FEF705FA88200290012003900020EF
:102790000490059002A90B48FEF7F8F84FF440703A
:1027A0000290122003900020049003200590042042
:1027B000069002A90348FEF7E9F807B000BD000043
:1027C000303802400004024000B58BB00020079072
:1027D000089009900A90059006900190029003904D
:1027E00004904FF08040254908600F204860002188
:1027F000224881606FF07041C160002101618161F8
:10280000FEF73AFF08B1FDF71EFE4FF48050079027
:1028100007A91A48FFF7D6F808B1FDF714FE1748C4
:10282000FFF7B0FA08B1FDF70EFE00200590069004
:1028300005A91248FEF74CFE08B1FDF704FE022080
:1028400001900290002003900490002201A90B48FF
:10285000FFF72EFA08B1FDF7F6FD002001900120E8
:1028600002900F200490042201A90448FFF720FAE7
:1028700008B1FDF7E8FD0BB000BD0000D40000205A
:1028800000B58BB000200790089009900A90059041
:102890000690019002900390049026482649086013
:1028A0000F2048600021244881606FF07041C160B2
:1028B000002101618161FEF7DFFE08B1FDF7C3FD74
:1028C0004FF48050079007A91B48FFF77BF808B129
:1028D000FDF7B9FD1848FFF755FA08B1FDF7B3FD4C
:1028E00000200590069005A91348FEF7F1FD08B1F8
:1028F000FDF7A9FD00200190012002900020039027
:102900000F200490002201A90B48FFF7D1F908B16C
:10291000FDF799FD0220019002900020049004220E
:1029200001A90548FFF7C4F908B1FDF78CFD0BB00C
:1029300000BD0000000C00401C0100201CB5002060
:10294000009001900E480F49086005204860002162
:102950000C48816040F6B831C16080218161FEF78A
:102960008BFE08B1FDF76FFD0020009001906946D5
:102970000448FEF7ADFD08B1FDF765FD1CBD000084
:1029800000100040640100201CB500200090019060
:102990000E480F4908600520486000210C488160FE
:1029A0004FF6FF71C16000218161FEF765FE08B13D
:1029B000FDF749FD00200090019069460448FEF7AC
:1029C00087FD08B1FDF73FFD1CBD0000001400406D
:1029D000AC01002000B595B000201190129013902A
:1029E00014900F9010901C2108A8FDF7B4FC202132
:1029F0006846FDF7B0FC3448344908604FF4F07085
:102A000048600021314881604FF42061C16000219D
:102A1000016141618161FEF72FFE08B1FDF713FDF1
:102A20004FF48050119011A92848FEF7CBFF08B150
:102A3000FDF709FD2548FFF756FC08B1FDF703FD3A
:102A400000200F9010900FA92048FEF741FD08B11B
:102A5000FDF7F9FC602008900020099002200A9000
:102A600008200B9000200C900D900E90002208A9D9
:102A70001648FFF7BAFB08B1FDF7E5FC042208A9E8
:102A80001248FFF7B2FB08B1FDF7DDFC082208A9E8
:102A90000E48FFF7AAFB08B1FDF7D5FC0020009017
:102AA000019002901420039000200490059007905C
:102AB00069460648FEF7D2FC08B1FDF7C4FC03489E
:102AC000FFF724FB15B000BD00040140F401002015
:102AD00000B589B0002005900690079008900190FD
:102AE0000290039004902148214908600F2048601B
:102AF00000211F4881604FF6FF71C1600021016114
:102B00008161FEF7B9FD08B1FDF79DFC4FF48050DF
:102B1000059005A91648FEF755FF08B1FDF793FC8F
:102B20001348FFF72FF908B1FDF78DFC0020019045
:102B300001200290002003900F200490002201A9A0
:102B40000B48FFF7B5F808B1FDF77DFC02200190B6
:102B5000029000200490042201A90548FFF7A8F87C
:102B600008B1FDF770FC09B000BD00000040014055
:102B70003C02002000BFFEE700BFFEE77047704741
:102B800010B5FEF711F810BD00B593B0302107A8BD
:102B9000FDF7E1FB142102A8FDF7DDFB00BF0020DB
:102BA00001902448006840F080502249086008469F
:102BB000006800F08050019000BF00BF00BF0020FF
:102BC00001901D48006840F480401B490860084699
:102BD000006800F48040019000BF00BF0220079011
:102BE00001200A9010200B9002200D9000210E91E0
:102BF00008210F9148211091022111910421129175
:102C000007A8FEF7C1F908B1FDF71DFC0F200290DF
:102C100002200390002004904FF480500590002083
:102C20000690022102A8FEF795F808B1FDF70BFC0B
:102C300013B000BD403802400070004003480068F7
:102C400040F47000014908607047000088ED00E022
:102C500010B50248FFF78EF910BD00003C020020BD
:102C600010B50248FFF786F910BD0000D40000201F
:102C700010B50248FFF77EF910BD00001C010020CE
:102C800010B50248FFF776F910BD0000640100207E
:102C900010B50248FFF76EF910BD0000AC0100202E
:102CA00010B50268294B98420ED0B0F1804F0BD07E
:102CB000274B984208D0274B984205D0264B984284
:102CC00002D0264B984203D122F070024B681A437F
:102CD0001E4B984220D0B0F1804F1DD01C4B984223
:102CE0001AD01C4B984217D01B4B984214D01B4B48
:102CF000984211D01A4B98420ED01A4B98420BD0E2
:102D0000194B984208D0194B984205D0184B98425D
:102D100002D0184B984203D122F44072CB681A4378
:102D200022F080034C6943EA040202608B68C362AC
:102D30000B688362054B984202D0084B984201D140
:102D40000B6903630123436110BD000000000140D3
:102D50000004004000080040000C00400004014056
:102D6000004001400044014000480140001800407C
:102D7000001C00400020004030B501F01F05012478
:102D800004FA05F3046A9C430462046A01F01F0517
:102D900002FA05F52C43046230BD30B501F01F0581
:102DA000042404FA05F3046A9C430462046A01F0F3
:102DB0001F0502FA05F52C43046230BD30B50C4600
:102DC000816821F47F4142EA03252543294381603C
:102DD00030BD0A46816821F0700142F007031943B3
:102DE0008160704730B5056A25F001050562026A09
:102DF0004368846924F0700424F003040D682C43B4
:102E000022F002028D682A43104DA84200D103E04F
:102E10000F4DA84206D100BF22F00802CD682A4318
:102E200022F00402094DA84202D0094DA84207D160
:102E300023F4807323F400734D692B438D692B4376
:102E4000436084614D684563026230BD000001400B
:102E50000004014030B5056A25F010050562026ADC
:102E60004368846924F4E04424F440740D6844EA1F
:102E7000052422F020028D6842EA0512124DA84274
:102E800000D103E0114DA84207D100BF22F080021B
:102E9000CD6842EA051222F040020B4DA84202D052
:102EA0000A4DA84209D123F4806323F400634D69DD
:102EB00043EA85038D6943EA8503436084614D6875
:102EC0008563026230BD0000000001400004014043
:102ED00030B5056A25F480750562026A4368C469E5
:102EE00024F0700424F003040D682C4322F40072D3
:102EF0008D6842EA0522124DA84200D103E0114D2F
:102F0000A84207D100BF22F40062CD6842EA052240
:102F100022F480620A4DA84202D00A4DA84209D18B
:102F200023F4805323F400534D6943EA05138D695C
:102F300043EA05134360C4614D68C563026230BD56
:102F4000000001400004014030B5056A25F48055B9
:102F50000562036A4468C26922F4E04222F44072C6
:102F60000D6842EA052223F400538D6843EA0533D5
:102F7000084DA84202D0084DA84204D124F4804450
:102F80004D6944EA85144460C2614D68056403627A
:102F900030BD0000000001400004014030B50B4688
:102FA0001446026A056A25F001050562816921F06F
:102FB000F00141EA041122F00A021A43816102621F
:102FC00030BD000070B50C461546066A26F00106B5
:102FD00006628169026A184EB04214D0B0F1804F87
:102FE00011D0164EB0420ED0154EB0420BD0154E39
:102FF000B04208D0144EB04205D0144EB04202D0B8
:10300000134EB04201D1012600E000261EB121F08E
:103010000301294301E041F0010121F0F001F02614
:1030200006EA0316314322F00A0204F00A0632438C
:103030008161026270BD0000000001400004004098
:1030400000080040000C0040000401400040014026
:103050000018004030B50B461446056A25F01005EF
:1030600005628169026A21F4704141EA043122F06B
:10307000A00242EA03128161026230BD70B50C46C3
:103080001546066A26F0100606628169026A21F476
:10309000407141EA052121F470414FF4704606EA7F
:1030A0000336314322F0A002A02606EA041632437A
:1030B0008161026270BD70B50C461546066A26F441
:1030C00080760662C169026A21F00301294321F07A
:1030D000F001F02606EA0316314322F420624FF491
:1030E000206606EA04263243C161026270BD70B5F3
:1030F0000C461546066A26F480560662C169026AC5
:1031000021F4407141EA052121F470414FF47046E9
:1031100006EA0336314322F420424FF4204606EA01
:1031200004363243C161026270BD00BFFEE7000099
:1031300002480068C0F30220704700000CED00E078
:1031400010B5002804DB0A07130E054A135406E0E5
:103150000A07140E034A00F00F031B1FD45410BDBE
:1031600000E400E018ED00E018480068184909681C
:1031700088422AD0174890ED000AF2EE040AB4EE15
:10318000600AF1EE10FA04D090ED000A124880EDCA
:10319000000AB2EE040A0F4880ED000A0F48D0ED95
:1031A000000A0F4890ED000AB8EE400AF4EEC00A9B
:1031B000F1EE10FA09D20648006804490860064892
:1031C00090ED000A034880ED000A704720000020BF
:1031D00024000020300000203400002040000020A7
:1031E0004C0000200F4800681E281AD30D480068C4
:1031F000B0F5617F15D20C4800680A490968884219
:1032000004D209480068401C074908600648006865
:1032100004490968884204D903480068401E0249ED
:10322000086070475400002018000020084800681B
:1032300040F6B831884205D99FED060A064880ED70
:10324000000A04E09FED050A034880ED000A70477C
:1032500004000020000048434800002000006042B5
:103260000F480088002819DB0D480088282815DC45
:103270000C4800680A490988884204DA094800684D
:10328000401C0849086007480068054909888842C9
:1032900004DD04480068401E0249086070470000D1
:1032A000500000201C000020FDF78AFCFFF76CFC9A
:1032B000FFF730FAFFF78EFBFFF740FBFFF7E0FA6E
:1032C000FFF782FAFFF704FCFFF75EFBFFF7E4F974
:1032D000FFF704FA012280211F48FDF759FC012263
:1032E00008211D48FDF754FC00211C48FFF730F869
:1032F00000211A48FEF746F904211848FFF728F87C
:1033000004211648FEF73EF908211448FFF720F87B
:1033100008211248FEF736F91148FEF7FFFA00219E
:103320001048FEF763FD04210E48FEF75FFD002103
:103330000D48FEF75BFD04210B48FEF757FD002109
:103340000A48FEF753FD04210848FEF74FFD0848E0
:10335000FEF7E4FA00BFFEE700040240F40100209B
:10336000640100201C010020D40000203C02002049
:10337000AC010020114800681E2804D30F480068E3
:10338000B0F5617F02D332200C4908600C480088F8
:10339000002803DB0A480088282802DD00200849AD
:1033A000088008480068002803DB064800682828D1
:1033B00002DD00200349086070470000540000202F
:1033C000500000201C00002010B52DED088B1D487A
:1033D000006800F095FC41EC1A0B9FED1B0B53ECC1
:1033E000102B00F0A5FA41EC190B9FED190B53ECD3
:1033F000102B00F09BFB41EC180B00F069FA16490A
:1034000008801648006800F07BFC41EC190B0D4861
:10341000006800F075FC41EC1B0B9FED110B53ECA9
:10342000102B00F085FA41EC1A0B53EC192B00F02D
:103430004FF841EC180B00F04BFA0B490860BDEC5B
:10344000088B10BD300000202D431CEBE2365A3FA4
:103450002CD49AE61DA7D83F500000204800002039
:10346000D044D8F0F44AA93F5400002021F0004293
:10347000A2F16052B2F5801F01F0004328BFD2F1E3
:103480007F6C0BD95FEA001C43EAC20242EB50702A
:1034900018BF704728BF20F001007047B2F5801FA9
:1034A000BCBF184670474FEA410C1CF5001F02D202
:1034B000084600F09BBC70B500F0E4FA00000089FB
:1034C000FFF7F6BF4FF00040A0F580007047000006
:1034D00010B591EA030F48BF83F0004300F12E833B
:1034E000841A71EB030C05D2121943EB0C03001B79
:1034F00061EB0C01DFF824E14FEA1154A4EB135CFB
:103500001EEA430F18BF9EEA445F73D023EA0E03FE
:10351000DCF1200E21EA045143F4801332D322FA65
:103520000CFE10EB0E0023FA0CFE41EB0E01CCF169
:10353000200E03FA0EFE10EB0E0051F10001B1F562
:10354000801FCCF1200E32D201EB045112FA0EF2A0
:10355000BDE8104058BF7047401C38BF5FEA4202C8
:1035600018BF7047002814BF20F0010041F100018E
:103570004FEA410313F5001F38BF7047A1F1C04166
:1035800000F0CEBA012A43EB0302ACF1200CDCF1CF
:103590001F0E32BF4FF0000E23FA0CF310EB0300A6
:1035A00041EB0451B4EB115FD0D0A1EB045101F514
:1035B000801149085FEA300001EB04510ED350F14D
:1035C000000038BF12FA0EFE08D1BDE81040C9E76E
:1035D000401C38BF5FEA4202CAD1C3E7BDE81040D1
:1035E0004FEA410313F5001F38BF7047A1F1C041F6
:1035F00000F096BA9EEA445F08D011EA5E0FBDE87B
:10360000104004BF01F0004100207047BDE81040A9
:1036100070B500F037FA00BF64FBBE3E0000E0FF6B
:103620002DE9C04130B4DFF8A0C23CEA111418BF44
:103630003CEA131400F0EC8081EA03051CEA111443
:1036400044EAD57418BF1CEA131500F0C780A4EB38
:1036500005044FF0004545EAC12145EAC32341EA8C
:10366000505143EA525304F17F74994204F50034F7
:103670004FEAC0204FEAC22208BF904200F09C806F
:103680004FEA13650FF24016765D4FEA134506FBCD
:1036900005F7C7F1807706FB07F74FEAD737A7FB97
:1036A00003687642C8F58038A7FB06CE38BFA8F17C
:1036B000010807FB08E64FF0000EA6FB028CE6FBB4
:1036C00003CEDCF1000CCEF1004E38BFAEF1010E9E
:1036D000A6FB0C584FF000074FF00005E6FB0E87E5
:1036E000A1FB08C6A0FB07CE16EB0E0645F10005B0
:1036F000E1FB076515F1E04E7EBFA4F580345FEA7B
:1037000046066D4116F1800745F100054FEA17277F
:103710004FEA066647EA0567A6F1DE46B6F1805F26
:103720004FEA15251FD9384624F0010C05EBC4716A
:10373000BCF1FE6F01EB0C1102D8F0BCBDE80081BA
:1037400024425CBF01F5801E9EEAC47F02D4F0BC17
:10375000BDE80081244238D4F0BCA1F1C041BDE8ED
:10376000004100F0DDB94FEAD22242EA43524FEA6B
:10377000D323A7FB02864FEAD02040EA415007FB43
:1037800003661EEA0E0F4FEAD12105FB026658BF01
:10379000A6EB0056B6EB00564FEA520E4EEAC37E39
:1037A00018EB0E0E56EB530EBDD518EB02085E411A
:1037B0007F1C55F10005B6E74FF480154FF0000768
:1037C0004FF000064FF00008ADE7F0BC4FF00000EE
:1037D00001F1C04101F00041BDE8008111EA0C1F78
:1037E0000CEA131500D00CE013EA0C1F00F0258042
:1037F0004FF00000F0BC81EA030101F00041BDE898
:103800000081F0BCBDE8004181EA030100F088B905
:10381000F0BCBDE8004170B500F034F9097EFC3E13
:1038200000F007B881EA03014FF0000001F0004109
:10383000704781EA030100F073B9F0BCBDE80041B4
:103840004FF0000021497047FFFDFBF9F7F5F4F256
:10385000F0EEEDEBE9E8E6E4E3E1E0DEDDDBDAD82B
:10386000D7D5D4D3D1D0CFCDCCCBCAC8C7C6C5C489
:10387000C2C1C0BFBEBDBCBBBAB9B8B7B6B5B4B3A0
:10388000B2B1B0AFAEADACABAAA9A8A8A7A6A5A48B
:10389000A3A3A2A1A09F9F9E9D9C9C9B9A9999984F
:1038A0009797969595949393929191908F8F8E8EF2
:1038B0008D8C8C8B8B8A898988888787868585847F
:1038C00084838382828181800000FF070000F87F6B
:1038D0004FEA41034FEA5353A3F58063D3F11E032C
:1038E000C8BFD3F1210C0CDD4FF0004242EAC122E7
:1038F00042EA505232FA03FC8CEAE17CACEBE17014
:103900007047102BC4BF0020704703F5787CBCF1D2
:10391000FF3F04D06FF0004282EA2100704770B58B
:1039200000F0B0F84992248000207047F2E70000D0
:10393000DFF848C170B51CEA111E1EBF1CEA131542
:103940009EEA0C0F95EA0C0F00F06F8081EA0304E9
:1039500023EA4C134EEAD47E21EA4C1141F4801143
:1039600043F48013AE44A1FB024CA0FB0365AEF10F
:103970007F7E361955EB0C05A1FB034C4CF100037F
:10398000A0FB021C16EB0C06654153F10003094233
:1039900018BF46F0010613F4007F0BD14FEA033144
:1039A0004FEA0530340341EA155140EA16506FF0F2
:1039B00003020AE04FEAC3214FEAC520F40241EABC
:1039C000555140EA56506FF0020202EB2E4201EBD5
:1039D000025585EACE710AD05FEA440C18BF24F084
:1039E000004450F1000041F1000120EAD47040F29F
:1039F000FE7C624500D270BDA84214BF4FF08044E7
:103A00004FF04044002E08BF0024BEF1806FA8BFD5
:103A1000A1F1C041BDE8704080F282804FF000000B
:103A200001F1C04101F0004170479EEA0C0F0CEA21
:103A3000131518BF95EA0C0F06D04FF0000081EA6D
:103A4000030E0EF0004170BD00F01CF88900013E2D
:103A500000F007B800F009B84FEA430C5FEA5C5C7D
:103A600008D081EA030100F05BB84FEA410C5FEA3D
:103A70005C5CF6D14FF00000014970470000FF0781
:103A80000000F87F0EF1020E2EF0030E5EF8046BBC
:103A9000364205D4012A43EB030515F5001F12D861
:103AA000012841EB010C1CF5001F0CD80ED14FEA88
:103AB000D17C15F5001F0CEB4C0C0CF1020C08BF6F
:103AC0004CEBD37C04E04FF0080C01E04FEAD37CD0
:103AD0000CEB4C0526FA05F606F00706B6F1040CC9
:103AE00006D20EEB860CBDE870404CF0010C60472E
:103AF000DFE80CF0090B02024FF000414FF000002C
:103B0000A1F5002170BD19461046012851EB0104B2
:103B100018BFD4F5001484BF002001F0004170BD2F
:103B20000808A0F500114FEA3101704710B591EA7D
:103B3000030F48BF83F000433FF5D2AC841A71EB0A
:103B4000030C07D212198CF0004C43EB0C03001B42
:103B500061EB0C01DFF8A4E14FEA1154A4EB135C14
:103B60001EEA430F18BF9EEA445F00F0B08023EACC
:103B70006E03524221EA0451C3EB6E0338BF5B1E51
:103B8000DCF1200E25D322FA0CFE10EB0E0043FAD6
:103B90000CFE41EB0E01CCF1200E03FA0EFE10EBF1
:103BA0000E0051F10001CCF1200E29D412FA0EF2D0
:103BB00001EB0451BDE8104058BF7047401C1CBFCA
:103BC000B2F1004F704700280CBF491C20F00100E3
:103BD000704712EB020E43EB030218BF4FF0010EC9
:103BE0004EEA4202ACF1200CDCF11E0E54D943FA2D
:103BF0000CFE10EB0E0051F1FF31CCF11E0ED5D5AD
:103C00000EF1010E12FA0EFE404141EB010101EBF3
:103C1000445C5FEA5C5C10D910EBDE7001EB045190
:103C200038BFBEF1004FBDE8104018BF70470028F4
:103C30000CBF491C20F00100704730D24FEAD42C51
:103C400011F5001124F400641BD0B1FA81F20B3A93
:103C5000A41AA41ED2F12003914030FA03F31943B1
:103C6000904001EBCC71002C01EB0451BDE81040F9
:103C7000A8BF704701F1C0414FF0000001F00041C2
:103C80007047B0FA80F310FA03F100D110BDE41AC6
:103C9000173C4805C90AE4E701EB045110BD49107F
:103CA00001EB0451BDE810404FEA300002E04FF054
:103CB000000170474A0008BF0042F8D0B2F5001F6B
:103CC00028BF704701F000414FF0000070479EEAA6
:103CD000445F07D011EA5E0FBDE8104004BF002129
:103CE00000207047BDE8104070B5FFF7CBFE00BF65
:103CF00040DFF63E83F00041104670470000E0FFD1
:103D000043004FEAD30C4FEA3C0C43401FBF40072F
:103D10000CF1605113F0FE4F70471CF0006F03D19F
:103D200000200CF0004170470CF0004343EA507053
:103D300010B540EACC0000F00EF800BF0000009281
:103D40004FEA0001FFF7ECBE4FF000414FF00000DA
:103D5000A1F5002170470EF1020E2EF0030E5EF861
:103D6000044B244204D44FEA4102B2F17F4F11D8F0
:103D70004FEA4003B3F17F4F0CD80ED14FEAD07C0D
:103D8000B2F17F4F0CEB4C0C0CF1020C08BF4CEB6A
:103D9000D17C04E04FF0080C01E04FEAD17C0CEB41
:103DA0004C0324FA03F404F00704B4F1040C06D223
:103DB0000EEB840CBDE810404CF0010C6047DFE8CE
:103DC0000CF0070802024FF00040A0F5800010BD83
:103DD0000846420018BFD2F1807288BF00F0004050
:103DE00010BD4FF04070E1EE100A7047FF2141EA2C
:103DF000D050C00570470000DD0800E11100E51952
:103E000000E82100EC2A00EF3200F13A00F4420011
:103E1000F64A00F85200FA5A00FC6200FD6900FE02
:103E20007100FE7800FF8000FF8700FF8E00FE9586
:103E300000FE9B00FDA200FCA800FAAE00F8B40052
:103E4000F6BA00F4C000F1C500EFCA00ECCF00E8FC
:103E5000D400E5D900E1DD00DDE100D9E500D4E8DA
:103E600000CFEC00CAEF00C5F100C0F400BAF600C4
:103E7000B4F800AEFA00A8FC00A2FD009BFE00957D
:103E8000FE008EFF0087FF007FFF0078FE0071FEBE
:103E90000069FD0062FC005AFA0052F8004AF60080
:103EA00042F4003AF10032EF002AEC0021E8001958
:103EB000E50011E10008DD0000E10800E51100E87F
:103EC0001900EC2100EF2A00F13200F43A00F6422A
:103ED00000F84A00FA5200FC5A00FD6200FE690038
:103EE000FE7100FF7800FF7F00FF8700FE8E00FE5E
:103EF0009500FD9B00FCA200FAA800F8AE00F6B405
:103F000000F4BA00F1C000EFC500ECCA00E8CF0031
:103F1000E5D400E1D900DDDD00D9E100D4E500CF32
:103F2000E800CAEC00C5EF00C0F100BAF400B4F636
:103F300000AEF800A8FA00A2FC009BFD0095FE0070
:103F40008EFE0087FF0080FF0078FF0071FE006991
:103F5000FE0062FD005AFC0052FA004AF80042F6E8
:103F6000003AF40032F1002AEF0021EC0019E800D9
:103F700011E50008E10000DD0000E10800E51100A6
:103F8000E81900EC2100EF2A00F13200F43A00F6C3
:103F90004200F84A00FA5200FC5A00FD6200FE6935
:103FA00000FE7100FF7800FF8000FF8700FE8E009A
:103FB000FE9500FD9B00FCA200FAA800F8AE00F6FA
:103FC000B400F4BA00F1C000EFC500ECCA00E8CFBD
:103FD00000E5D400E1D900DDDD00D9E100D4E50041
:103FE000CFE800CAEC00C5EF00C0F100BAF400B49D
:103FF000F600AEF800A8FA00A2FC009BFD0095FEBA
:10400000008EFE0087FF0080FF0078FF0071FE0039
:1040100069FE0062FD005AFC0052FA004AF80042B4
:10402000F6003AF40032F1002AEF0021EC0019E822
:104030000011E50008E1000000000000000001029E
:104040000304060708090000000001020304000041
:10405000704000080000002084000000C401000837
:10406000F44000088400002094080000E0010008EB
:1040700000000000B80B000000000000000000007D
:104080000000000000000000FF0000000000000031
:1040900001000000010000000006010000606A4805
:1040A0000000FA43000000000000000000000000D3
:1040B000000000000000000000006042200300003B
:1040C00000000000000000000000000000000000F0
:1040D00000000000000000000000000000000000E0
:1040E00000000000000000001000000001000000BF
:0440F0000024F400B4
:040000050800018965
:00000001FF
