:020000040800F2
:10000000780700204D0200084F170008611600080D
:100010004D1700087F040008731C00080000000052
:10002000000000000000000000000000531700085E
:10003000810400080000000051170008551700084F
:1000400067020008670200086702000867020008EC
:1000500067020008670200086702000867020008DC
:1000600067020008670200086702000867020008CC
:1000700067020008670200086702000867020008BC
:1000800067020008670200086702000867020008AC
:10009000670200086702000867020008670200089C
:1000A000670200086702000867020008670200088C
:1000B000FD170008670200086702000867020008D1
:1000C000670200086702000867020008670200086C
:1000D000670200086702000867020008670200085C
:1000E000670200086702000867020008670200084C
:1000F000670200086702000867020008670200083C
:10010000670200086702000867020008670200082B
:100110008D190008670200086702000867020008DE
:10012000670200086702000867020008670200080B
:1001300067020008670200086702000867020008FB
:1001400067020008670200086702000867020008EB
:1001500067020008670200086702000867020008DB
:1001600067020008670200086702000867020008CB
:10017000670200086702000867020008000000002C
:1001800067020008670200086702000867020008AB
:10019000670200086702000867020008670200089B
:1001A00067020008670200086702000800F002F812
:1001B00000F03CF80AA090E8000C82448344AAF1C5
:1001C0000107DA4501D100F031F8AFF2090EBAE8C3
:1001D0000F0013F0010F18BFFB1A43F0010318477B
:1001E000581B0000781B0000103A24BF78C878C163
:1001F000FAD8520724BF30C830C144BF04680C602D
:10020000704700000023002400250026103A28BF74
:1002100078C1FBD8520728BF30C148BF0B60704778
:100220001FB501F077FD1FBD10B510BD00F0EEF851
:100230001146FFF7F5FF01F02DFD00F00CF903B4B6
:10024000FFF7F2FF03BC00F013F9000009488047F4
:1002500009480047FEE7FEE7FEE7FEE7FEE7FEE7A8
:10026000FEE7FEE7FEE7FEE704480549054A064BC0
:1002700070470000ED170008AD010008780100206C
:1002800078070020780300207803002053EA020C4E
:1002900000F069802DE9F04B4FF00006002B1FBFE6
:1002A000B3FA83F503FA05F424FA05F65E4012BFAB
:1002B0001643B2FA82F502FA05F4C5F120051EBF15
:1002C00022FA05FC44EA0C04203556EA044C4FEAB5
:1002D000144418BF641C4FF000084FF0000990420E
:1002E00071EB030C39D3002919BFB1FA81F701FA78
:1002F00007F6B0FA80F700FA07F6C7F120071EBF2D
:1003000020FA07FC46EA0C062037B6FBF4FCA7EB04
:100310000507103F07F01F0BCBF120060CFA0BFB73
:100320002CFA06F644BFB3460026202FA4BF5E4633
:100330004FF0000B5BEA060C08BF4FF0010B19EB06
:100340000B09ABFB027C48EB0608C01B06FB02CC8A
:100350000BFB03CC71EB0C01C1E70B460246414697
:100360004846BDE8F08B13B54FF000004FF0000198
:10037000AFF30080BDE81C40704710B5431C02E09D
:1003800010F8011B71B18107FAD14FF0013202C898
:100390008C1A8C4314EAC211F9D0C01A0A0603D091
:1003A000C01E10BDC01A10BD0A0401D0801E10BDB1
:1003B0000902FCD0401E10BD4FF0000200B51346EC
:1003C00094469646203922BFA0E80C50A0E80C5075
:1003D000B1F12001BFF4F7AF090728BFA0E80C5026
:1003E00048BF0CC05DF804EB890028BF40F8042B1F
:1003F00008BF704748BF20F8022B11F0804F18BF8C
:1004000000F8012B7047704770477047754600F041
:100410002BF8AE4605006946534620F00700854696
:1004200018B020B5FFF720FFBDE820404FF00006D0
:100430004FF000074FF000084FF0000B21F00701CC
:10044000AC46ACE8C009ACE8C009ACE8C009ACE80F
:10045000C0098D46704710B50446AFF300802046B2
:10046000BDE81040FFF7EBBE0048704718010020C0
:1004700001491820ABBEFEE7260002007047FEE7E8
:1004800070472DE9F0410446876D00F07DF906467E
:1004900094F835000025022806D08020606584F895
:1004A00034500120BDE8F0812068016821F0160178
:1004B00001602068416921F080014161206C08B928
:1004C000A06C20B12068016821F00801016020685B
:1004D000016821F0010101600CE000F055F9801B7A
:1004E000052807D920206065032084F8350084F8AA
:1004F0003450D7E720680068C007EED194F85C104C
:100500003F208840B860012084F8350084F83450DA
:100510000020C7E790F83510022903D080214165FB
:1005200001207047052180F835100068016821F02E
:1005300001010160002070472DE9F84FDFF8F8A1B4
:10054000002201240AF1040B03254FF00F090BF1DF
:10055000040E00BF0B6804FA02F63340B34270D1B8
:100560000F7907F00307012F01D0022F16D18768FA
:100570004FEA420805FA08FC27EA0C07D1F80CC03C
:100580000CFA08FC4CEA070CC0F808C04768B743EF
:100590000E79C6F3001696403E4346600E79F64348
:1005A000B6070AD0C7684FEA420C05FA0CF6B74303
:1005B0008E6806FA0CF63E43C6600E7906F0030616
:1005C000022E10D1D60800EB8608D8F82060570715
:1005D0004FEAD76C09FA0CF7BE430F6907FA0CF71C
:1005E0003743C8F8207006684FEA420C05FA0CF74A
:1005F000BE430F7907F0030707FA0CF7374307608C
:100600004E6816F4403F1CD04C4E376847F4804784
:100610003760366822F0030706F480460096484E9D
:1006200007EB060CDCF8086897073F0F09FA07F894
:1006300026EA0806DFF80C81404503D14FF0000898
:1006400041E072E0DFF80081404502D14FF001083F
:1006500039E0DFF8F880404502D14FF0020832E07F
:10066000DFF8EC80404502D14FF003082BE0DFF8C3
:10067000E480404502D14FF0040824E0DFF8D88040
:10068000404502D14FF005081DE0DFF8D08040451D
:1006900002D14FF0060816E0DFF8C480404502D1D1
:1006A0004FF007080FE0DFF8BC80404502D14FF063
:1006B000080808E0DFF8B080404502D14FF0090893
:1006C00001E04FF00A0808FA07F848EA0608CCF8F3
:1006D0000888DAF800605746D1F804C09E435FEA04
:1006E000CC3C00D51E433E60DBF800605F46D1F88D
:1006F00004C09E435FEA8C3C00D51E433E60DEF89A
:1007000000607746D1F804C09E435FEACC2C00D548
:100710001E433E60084F0C373E68D1F804C09E432C
:100720005FEA8C2C00D51E433E60521C102AFFF459
:1007300011AFBDE8F88F0000003C01404438024092
:100740000030014000000240000402400008024066
:10075000000C024000100240001402400018024049
:10076000001C02400020024000240240426921EAAD
:1007700002030A4043EA0241816170470AB1816184
:1007800070470904FBE700000148806870470000DB
:10079000000000200248816802781144816070479F
:1007A000000000200B4810B5016841F400710160A1
:1007B000016841F480610160016841F48071016069
:1007C000032000F06FF80F2000F006F800F024F886
:1007D000002010BD003C024070B50D4D04464FF4A2
:1007E0007A712878B1FBF0F00A490968B1FBF0F0A2
:1007F00000F00CFB48B9102C07D200222146501EF5
:1008000000F030F800206C6070BD012070BD000069
:10081000000000200C0000200A4808B5016841F4DF
:1008200080410160006800F4804000900548001F8E
:10083000016841F080510160006800F08050009034
:1008400008BD000044380240002809DB00F01F0208
:10085000012191404009800000F1E020C0F8001122
:1008600070470000F0B40E4B1B680C46C3F3022324
:10087000C3F10705042D00D90425191D072901D24C
:10088000002300E0DB1E012606FA05F1491E214087
:1008900099409E40761E16403143F0BC01F0EAB903
:1008A0000CED00E0064900F0070208684FF6FF0370
:1008B000184040EA0220034A1043086070470000D5
:1008C0000CED00E00000FA052DE9F0470E460500AA
:1008D00065D0DFF81481D8F80000F7B200F00F00FF
:1008E000B04207D288F80070D8F8000000F00F007E
:1008F000B04254D128683D4C810712D5400703D53A
:10090000206840F4E05020602878000703D5206874
:1009100040F4604020602068A96820F0F00008439F
:1009200020602878C0072DD0304968680839012830
:1009300012D0022813D0032811D009688907002992
:100940002DDA216821F0030101432160FFF71CFF2C
:10095000814641F2883A0EE009688903EFE70968A9
:100960008901ECE7FFF710FFA0EB0901514502D91F
:100970000320BDE8F0872068696800F00C00B0EB48
:10098000810FEFD1D8F80010404601F00F01B142BD
:1009900007D90770006800F00F00B04201D00120B5
:1009A000E7E72878400705D52068E96820F4E0509B
:1009B000084320602878000706D52068296920F4BC
:1009C000604040EAC100206000F038F82168084A21
:1009D000C1F30311515CC84006490860064800682D
:1009E000FFF7FAFE0020C4E7003C0240083802404E
:1009F0001E1D00080C0000200400002004480549CA
:100A000000680968044AC1F38221515CC8407047FC
:100A10000C000020083802402E1D0008044805493B
:100A200000680968044AC1F34231515CC84070470C
:100A30000C000020083802402E1D0008154810B593
:100A4000006810F00C02144813D01449042A0FD087
:100A5000082A0ED10F4C241F2268236802F03F029F
:100A60005B0207D52068C0F38810A0FB010106E0F7
:100A7000084610BD2168C1F38811A1FB00010023C5
:100A8000FFF704FC2168C1F30141491C4900B0FB98
:100A9000F1F010BD083802400024F40040787D01D8
:100AA0002DE9F84F04006ED02078DFF84C93C00792
:100AB000A9F104054AD009F104000168C1F38101DC
:100AC000012908D00068C0F3810002280AD1D9F8B2
:100AD0000000400206D52868800337D560680028EA
:100AE000E1D033E06068B0F5803F10D0B0F5A02FC2
:100AF000286810D020F480302860286820F48020F6
:100B000028606068A8B1FFF73FFE06460DE0286840
:100B100040F48030F4E740F480202860F7E700BF1D
:100B2000FFF732FE801B642873D828688003F7D54E
:100B30000CE0FFF729FE064605E000BFFFF724FEA4
:100B4000801B6428F0D828688003F7D42078DFF869
:100B5000AC8280074FF0000A3ED5A748001D01680F
:100B600011F00C0F08D00068C0F3810002280BD1EF
:100B7000D9F80000400207D42868800716D5E0683D
:100B8000012800D112E033E1E068B8B10120C8F8D3
:100B90000000FFF7F9FD064605E000BFFFF7F4FD92
:100BA000801B0228C0D828688007F7D528682169EB
:100BB00020F0F80040EAC10028600DE0C8F800A06D
:100BC000FFF7E2FD064604E0FFF7DEFD801B02288A
:100BD0001FD828688007F7D42078000722D5864FD1
:100BE00087486169703771B101210160FFF7CCFD61
:100BF000064604E0FFF7C8FD801B022809D83868C4
:100C00008007F7D50EE0C0F800A0FFF7BDFD06464F
:100C100005E082E0FFF7B8FD801B02287DD8386828
:100C20008007F7D42078400768D5DFF8CCB10027DB
:100C30000BF13C0BDBF80000C0000BD4DBF800101C
:100C400041F08051CBF80010DBF80000012700F0E4
:100C5000805000906B4E3068C00510D4306840F46E
:100C600080703060FFF790FD009005E0FFF78CFD8D
:100C70000099401A022850D83068C005F6D55E4E5B
:100C8000A0686C3601280FD00528306810D020F0FD
:100C900001003060306820F004003060A068B8B116
:100CA000FFF772FD00900FE0306840F00100F4E7BC
:100CB00040F004003060F7E7FFF766FD0099411A45
:100CC00041F28830814266D830688007F4D50EE062
:100CD000FFF75AFD009007E0FFF756FD0099411A13
:100CE00041F28830814256D830688007F4D42FB161
:100CF000DBF8001021F08051CBF80010A069C8B3D8
:100D00003D49091D0968C1F3810102294AD0022821
:100D1000504607D0C8F8600000E03CE0FFF734FD23
:100D200004463BE04746C8F86000FFF72DFD064645
:100D300005E000BFFFF728FD801B02282BD828689C
:100D40008001F7D4D4E907010843A16A2E4A490873
:100D500002EB0141626A41EA8211084394F82C10C7
:100D600040EA0161C9F8001001203866FFF70CFD68
:100D7000044606E03EE000BFFFF706FD001B022828
:100D800009D828688001F7D534E000BFFFF7FCFCE4
:100D9000001B022802D90320BDE8F88F28688001D3
:100DA000F4D427E00128F7D0D9F80000E26900F474
:100DB000800191421CD1226A00F03F01914217D17B
:100DC00047F6C071626A0140B1EB821F10D1A26A7E
:100DD0004FF0FF3300F4403103EB5202B1EB024F0E
:100DE00006D194F82C1000F07060B0EB016F01D0C8
:100DF0000120D1E70020CFE704380240000047423D
:100E0000800E4742007000400000FFFF10B5401EFA
:100E1000B0F1807F01D3012010BD4FF0E02460616C
:100E20000F21601700F026FF0020A061072020613D
:100E3000002010BD7047704770B590F83C20012A23
:100E400032D0012480F83C40022280F83D20036823
:100E50005A689D6822F070060A6832435A60134B44
:100E600002689A4214D0B2F1804F11D0104B9A42CE
:100E70000ED0104B9A420BD00F4B9A4208D00F4B1A
:100E80009A4205D00E4B9A4202D00E4B9A4204D1A0
:100E9000496825F080031943916080F83D400021A6
:100EA00080F83C10084670BD022070BD0000014073
:100EB0000004004000080040000C00400004014015
:100EC000004001400018004010B5040003D094F821
:100ED0003D0010B107E0012010BD002084F83C0067
:100EE000204600F01FF8022084F83D00211D2068F4
:100EF00000F08AFC012084F8460084F83E0084F863
:100F00003F0084F8400084F8410084F8420084F8EF
:100F1000430084F8440084F8450084F83D00002034
:100F200010BD000008B50068B0F1804F12D10A482A
:100F3000016841F0010101600068002200F0010039
:100F4000009011461C20FFF78DFCBDE808401C20D6
:100F5000FFF77ABC08BD00004038024090F83D1011
:100F6000012901D001207047022180F83D1001685D
:100F7000CA6842F00102CA6000681149884214D070
:100F8000B0F1804F11D00F4988420ED00E498842EF
:100F90000BD00E49884208D00D49884205D00D4932
:100FA000884202D00C49884204D1816801F00701CF
:100FB000062903D0016841F001010160002070475B
:100FC000000001400004004000080040000C004008
:100FD00000040140004001400018004070B5044684
:100FE00090F83C000025012817D0012684F83C60C9
:100FF000022084F83D002068826822F0770222F403
:101000007F4282600868502838D00DDC20284FD0FD
:1010100005DC90B3102811D14AE0022070BD3028C1
:1010200046D040280AD13BE060282FD070280DD050
:10103000B0F5805F03D0B0F5005F12D0012584F8D1
:101040003D60002084F83C00284670BDCB68D1E9A3
:101050000121206800F03CFC2068816841F07701A4
:1010600009E0CB68D1E90121206800F031FC20685B
:10107000816841F480418160E1E719E0CA6849680C
:10108000206800F037FC5021206806E0CA684968F3
:10109000206800F040FC6021206800F023FCCEE7CF
:1010A000CA684968206800F025FC40212068F4E700
:1010B000226801461046F0E7704770B504460068A4
:1010C00001694FF00005C943890715D4C168C943B8
:1010D000890711D4E91E0161012020772068806909
:1010E0008007204602D0FFF7E7FF04E000F098F801
:1010F000204600F096F8257720680169C943490722
:1011000017D4C168C943490713D46FF004010161C2
:10111000022020772068806910F4407F204602D0AA
:10112000FFF7CAFF04E000F07BF8204600F079F8F2
:10113000257720680169C943090716D4C168C943E6
:10114000090712D46FF0080101610420207720689C
:10115000C0698007204602D0FFF7AEFF04E000F030
:101160005FF8204600F05DF8257720680169C943E3
:10117000C90617D4C168C943C90613D46FF010015A
:101180000161082020772068C06910F4407F204664
:1011900002D0FFF791FF04E000F042F8204600F093
:1011A00040F8257720680169C943C90708D1C1689B
:1011B000C943C90704D1891E0161204600F032F8F5
:1011C00020680169C943090609D4C168C9430906F1
:1011D00005D46FF0800101612046FFF72BFE2068E7
:1011E0000169C943490609D4C168C943490605D400
:1011F0006FF040010161204600F015F82068016998
:10120000C94389060BD4C168C943890607D46FF066
:10121000200101612046BDE87040FFF70CBE70BDA3
:10122000704770477047704770477047F8B501685E
:1012300004460868CA684B6910F00F0F4FF00005AC
:1012400059D003F0010602F49077374365D0C10707
:1012500005D0D10503D5216C41F00101216441077E
:1012600005D5D90703D0216C41F002012164810723
:1012700005D5D90703D0216C41F004012164010791
:1012800007D502F02001314303D0216C41F0080161
:101290002164216C00293AD0800604D5900602D53D
:1012A000204600F0A8FB20684069216CC0F3801044
:1012B000090700D460B3204600F076FB206840693F
:1012C000400621D52068143050E8001F21F040016D
:1012D00040E80012002AF5D1A06BA8B16C49016565
:1012E000A06BFFF717F9002811D0A06B016D01B0BA
:1012F000BDE8F040084783060FD593060DD520467C
:10130000BDE8F84000F077BB2046FFF78EFFF8BD40
:101310002046FFF78AFF2564F8BD266B2023012EA7
:1013200079D1C60677D5D60675D508684868009085
:101330004869400640D5A16B086840680004000C6D
:10134000EAD0A28D8242E7D9E085C869B0F5807FF6
:101350002DD020680C3050E8001F21F4807140E847
:101360000012002AF5D12068143050E8001F21F047
:10137000010140E80012002AF5D12068143050E83D
:10138000001F21F0400140E80012002AF5D184F846
:101390003E30256320680C3050E8001F21F010011A
:1013A00040E80012002AF5D1A06BFFF76AF8A08D83
:1013B000E18D401A81B229E0A08DE18D401A81B201
:1013C000E08D0028A8D00029A6D020680C3050E875
:1013D000002F22F4907240E80026002EF5D12068FC
:1013E000143050E8002F22F0010240E80026002EC1
:1013F000F5D184F83E30256320680C3050E8002F8A
:1014000022F0100240E80023002BF5D12046FFF720
:101410000BFFF8BDFFE705062BD5150629D594F877
:101420003D002128F5D1A068B0F5805F01D1206989
:10143000B0B1206A411C2162216800784860E08CCC
:10144000401E0004000CE084E3D12068C16821F054
:101450008001C1602068C16841F04001C160D8E7E7
:10146000206A0088C0F308004860206A801C20625F
:10147000E5E74006CDD55006CBD5CA68204622F018
:101480004002CA6084F83D3000F0E9F8C1E700008E
:101490009919000870B5040004D094F83D000025A7
:1014A00010B106E0012070BD84F83C50204600F0E9
:1014B00023F8242084F83D002068C16821F40051FD
:1014C000C160204600F0F8FA2068016921F49041DB
:1014D00001612068416921F02A0141612068C168E9
:1014E00041F40051C1602564202084F83D0084F857
:1014F0003E00002070BD000010B586B004461421E7
:101500006846FEF759FF17492068884227D11648D8
:101510000021026842F400220260006800F400200A
:10152000059011481038026842F00102026000681C
:10153000022200F0010005900320CDE90210CDE960
:1015400000020820049069460848FEF7F5FF0022D3
:1015500011463420FFF786F93420FFF775F906B0FD
:1015600010BD0000004C0040403802400000024026
:1015700090F83E30202B0ED159B152B190F83C304A
:10158000012B08D0012380F83C300023036300F0D6
:1015900019BB0120704702207047000002498842B1
:1015A00001D100F0CBB97047940000202DE9F84339
:1015B000044690F83D001F4616460D4620284CD1A3
:1015C000C5B1BEB194F83C00012846D0012084F892
:1015D0003C004FF00008C4F84080212084F83D0012
:1015E000FFF7D2F8A6848146E684A068B0F5805F54
:1015F00003D004E00120BDE8F883206928B12E461D
:101600005FF0000584F83C800EE00026FAE78021B8
:10161000204600F0F2FAA0B9AEB116F8010B21682D
:101620004860E08C401EE084E08C4B464FF00002A6
:1016300000970028EBD14FF04001204600F0DDFA82
:1016400030B10320D7E735F8020BC0F30800E6E716
:10165000202084F83D000020CDE70220CBE7704732
:10166000FEE7000070B586B014216846FEF7A4FEC0
:101670001A480024016841F080010160016801F00E
:1016800080010591016841F001010160016801F0EC
:1016900001010591016841F0020101600068104EEE
:1016A00000F002000590002281213046FFF766F825
:1016B00001250095CDE90154694630460394FEF7B3
:1016C0003BFF8020CDE900050220CDE902046946F8
:1016D0003046FEF731FF06B070BD000030380240E2
:1016E0000004024010B586B000241748009401940D
:1016F0000294039404944FF080410594016048F6ED
:101700009F41C0E901144FF47A61C0E90314846178
:10171000FFF7DAFB08B172B6FEE74FF48050009095
:1017200069460948FFF75AFC08B172B6FEE7202067
:10173000CDE9040404A90448FFF77EFB002801D08A
:1017400072B6FEE706B010BD4C000020FEE7FEE7D3
:1017500070477047FFF71EB830B593B03021684628
:10176000FEF72AFE14210CA8FEF726FE1D480025D0
:10177000016841F080510160006800F080501190D4
:101780001948016821F4404141F48041016000683A
:10179000022400F4404011900120009000040190C8
:1017A0008001CDE90640192008909020CDE9090478
:1017B00004200B906846FFF773F908B172B6FEE794
:1017C0000CA90F2081E831004FF48050CDE90F05BE
:1017D00002210CA8FFF778F8002801D072B6FEE7C6
:1017E00013B030BD4038024000700040024801682C
:1017F00041F470010160704788ED00E00148FFF797
:101800005CBC00004C000020F0B50268254C264D61
:10181000264E274F274B4FF0804CA04209D0604501
:1018200007D0A84205D0B04203D0B84201D09842B8
:1018300004D122F0700E4A6842EA0E02A0421BD088
:10184000604519D0A84217D0B04215D0B84213D085
:10185000984211D0184DA8420ED0184DA8420BD076
:10186000174DA84208D0174DA84205D0164DA842E2
:1018700002D0164DA84203D122F44075CA682A430B
:101880004D6922F080022A4302608A68C2620A68B7
:101890008262A04201D0984201D10969016301210D
:1018A0004161F0BD0000014000040040000800401C
:1018B000000C004000040140004001400044014091
:1018C0000048014000180040001C0040002000407B
:1018D00010B5846842EA032224F47F440A43224379
:1018E000826010BD826822F070020A4342F0070154
:1018F0008160704710B5036A046A24F00104046231
:10190000846924F0F00444EA021423F00A020A4332
:101910008461026210BD10B5036A23F010030362F4
:101920008369046A23F4704343EA023224F0A0037B
:1019300043EA01118261016210BD000070B5124CD2
:101940001148C834002594F83C1000783B2902D98E
:1019500084F83C5006E060540A280BD014F83C0F81
:10196000401C2070BDE870400749012201F184004D
:10197000FFF7FEBD044814F83C1FC9300D54401E4B
:1019800000F0B2F92570EDE7100000200148FFF7E4
:101990004DBC00009400002010B5806B0021C18573
:1019A000C184FFF742FC10BD01680C3151E8002FE3
:1019B00022F4907241E80023002BF5D10168143124
:1019C00051E8002F22F0010241E80023002BF5D15D
:1019D000016B012909D101680C3151E8002F22F077
:1019E000100241E80023002BF5D1202180F83E10A1
:1019F00000210163704708B590F83E10222901D0FC
:101A0000022008BD82684FF480539A4201D10169D7
:101A100021B1816A9A421BD04AB10AE00268816A08
:101A20005268C2F308020A80816A891C08E00269D0
:101A300072B10268526802F07F020A70816A491C22
:101A40008162C18D491E0904090CC18503D019E0CA
:101A500002685268F1E70168CA6822F02002CA6091
:101A60000168CA6822F48072CA6001684A6922F07B
:101A700001024A61202180F83E10016B012903D048
:101A8000FFF78CFD002008BD0021016301680C31C7
:101A900051E8002F22F0100241E80023002BF5D17D
:101AA00001680A68D20602D50A6849680091818DEA
:101AB000FFF7BAFBE6E7000070B50446006801696D
:101AC000E26821F44051114301612169A068E26993
:101AD00008436169114308432168CA6849F20C63ED
:101AE0009A430243CA6020684169A26921F44071A7
:101AF0001143416131492068884202D0304988420F
:101B000002D1FEF78BFF01E0FEF778FFE2690023C8
:101B1000192164253226B2F5004F626828D0A0FB57
:101B20000101930F9200FEF7B1FB0146B0FBF5F007
:101B30006FF01802504301EB800006EB0010B0FB81
:101B4000F5F000F0F002B1FBF5F002EB0012B1FB92
:101B5000F5F06FF01803584301EB800006EB00101E
:101B6000B0FBF5F000F00F0021681044886070BDF4
:101B7000A0FB010192185B41FEF788FB0146B0FB18
:101B8000F5F00201B1FBF5F06FF01803584301EBDB
:101B9000800006EBC000B0FBF5F000F0F80002EBAF
:101BA0004002B1FBF5F0584301EB800006EBC000AA
:101BB000B0FBF5F000F00700D6E700000010014090
:101BC0000014014081628285C285002101642222C5
:101BD00080F83E2080F83C100168CA6842F48072A8
:101BE000CA6001684A6942F001024A610068C1683E
:101BF00041F02001C160002070472DE9F041984676
:101C000017460E460446069D27E0681C25D02DB1D8
:101C1000FEF7BAFDA0EB0800A8421ED920680C30E0
:101C200050E8001F21F4D07140E80012002AF5D1DD
:101C30002068143050E8001F21F0010140E8001234
:101C4000002AF5D1202084F83D0084F83E000020D1
:101C500084F83C000320BDE8F0812068006836EA83
:101C6000000004D00020B842CFD00020F3E70120CC
:101C7000F9E7FEE70907090E002804DB00F1E02080
:101C800080F80014704700F00F0000F1E02080F8A9
:101C9000141D7047FEF786FDFFF75EFDFFF7E2FCBF
:101CA00010480F490C2201604FF4E13141600021DE
:101CB0008160C160C0E904128161C161FFF7EAFB84
:101CC00008B172B6FEE7FFF70DFD0649012284391F
:101CD0000448FFF74DFC03484838FFF73FF9FEE79B
:101CE000004C00409400002010B50446FEF745FB70
:101CF00082B24FF4805321460448FFF757FCBDE8F9
:101D0000104080210248FEF731BD00009400002001
:101D1000000402404FF04070E1EE100A70470000EE
:101D2000000000000000010203040607080900008B
:101D30000000010203040000581D000800000020FC
:101D400010000000E8010008681D000810000020D5
:101D500068070000040200080100000010000000F5
:081D6000000000000024F40063
:04000005080001AD41
:00000001FF
