:020000040800F2
:10000000900800204D020008D31C0008F1180008D9
:10001000D11C000843040008332100080000000040
:10002000000000000000000000000000D71C0008D5
:100030004504000800000000D51C0008D91C000879
:1000400067020008670200086702000867020008EC
:1000500067020008670200086702000867020008DC
:1000600067020008670200086702000867020008CC
:1000700067020008670200086702000867020008BC
:1000800067020008670200086702000867020008AC
:10009000670200086702000867020008670200089C
:1000A00067020008791D0008670200086D1D00083E
:1000B000851D000867020008670200086702000843
:1000C000670200086702000867020008670200086C
:1000D000670200086702000867020008670200085C
:1000E000470400086702000867020008670200086A
:1000F000670200086702000867020008670200083C
:100100006702000867020008911D000867020008E6
:1001100067020008670200089D1D000867020008CA
:10012000670200086702000867020008670200080B
:1001300067020008670200086702000867020008FB
:1001400067020008670200086702000867020008EB
:1001500067020008670200086702000867020008DB
:1001600067020008670200086702000867020008CB
:10017000670200086702000867020008000000002C
:1001800067020008670200086702000867020008AB
:10019000670200086702000867020008670200089B
:1001A00067020008670200086702000800F002F812
:1001B00000F03CF80AA090E8000C82448344AAF1C5
:1001C0000107DA4501D100F031F8AFF2090EBAE8C3
:1001D0000F0013F0010F18BFFB1A43F0010318477B
:1001E000B0220000D0220000103A24BF78C878C1A5
:1001F000FAD8520724BF30C830C144BF04680C602D
:10020000704700000023002400250026103A28BF74
:1002100078C1FBD8520728BF30C148BF0B60704778
:100220001FB502F007F81FBD10B510BD00F0CFF8E4
:100230001146FFF7F5FF01F08DFF00F0EDF803B474
:10024000FFF7F2FF03BC00F0F5F800000948804713
:1002500009480047FEE7FEE7FEE7FEE7FEE7FEE7A8
:10026000FEE7FEE7FEE7FEE704480549054A064BC0
:10027000704700005D1D0008AD01000890020020DD
:1002800090080020900400209004002053EA020C03
:1002900000F069802DE9F04B4FF00006002B1FBFE6
:1002A000B3FA83F503FA05F424FA05F65E4012BFAB
:1002B0001643B2FA82F502FA05F4C5F120051EBF15
:1002C00022FA05FC44EA0C04203556EA044C4FEAB5
:1002D000144418BF641C4FF000084FF0000990420E
:1002E00071EB030C39D3002919BFB1FA81F701FA78
:1002F00007F6B0FA80F700FA07F6C7F120071EBF2D
:1003000020FA07FC46EA0C062037B6FBF4FCA7EB04
:100310000507103F07F01F0BCBF120060CFA0BFB73
:100320002CFA06F644BFB3460026202FA4BF5E4633
:100330004FF0000B5BEA060C08BF4FF0010B19EB06
:100340000B09ABFB027C48EB0608C01B06FB02CC8A
:100350000BFB03CC71EB0C01C1E70B460246414697
:100360004846BDE8F08B13B54FF000004FF0000198
:10037000AFF30080BDE81C4070474FF0000200B5AD
:10038000134694469646203922BFA0E80C50A0E8B8
:100390000C50B1F12001BFF4F7AF090728BFA0E866
:1003A0000C5048BF0CC05DF804EB890028BF40F832
:1003B000042B08BF704748BF20F8022B11F0804F74
:1003C00018BF00F8012B704770477047704775469B
:1003D00000F02CF8AE4605006946534620F00700B1
:1003E000854618B020B5FFF73FFFBDE820404FF02D
:1003F00000064FF000074FF000084FF0000B21F00F
:100400000701AC46ACE8C009ACE8C009ACE8C009DB
:10041000ACE8C0098D46704710B50446AFF30080C4
:100420002046BDE81040FFF70ABF000000487047B3
:100430003002002001491820ABBEFEE72600020072
:100440007047FEE770474FF4005000F01FB80000FF
:1004500070B5044600F04EF90546601C02D0044811
:100460000078044400F046F9401BA042FAD370BD66
:1004700028000020B0F5005F04D14FF4804102480D
:1004800000F02AB97047000000040240044910B58A
:100490000A68024202D00860FFF7ECFF10BD0000BE
:1004A000143C01402DE9F84FDFF8F8A100220124A7
:1004B0000AF1040B03254FF00F090BF1040E00BFE6
:1004C0000B6804FA02F63340B34270D10F7907F09B
:1004D0000307012F01D0022F16D187684FEA420887
:1004E00005FA08FC27EA0C07D1F80CC00CFA08FC46
:1004F0004CEA070CC0F808C04768B7430E79C6F34A
:10050000001696403E4346600E79F643B6070AD081
:10051000C7684FEA420C05FA0CF6B7438E6806FA34
:100520000CF63E43C6600E7906F00306022E10D18B
:10053000D60800EB8608D8F8206057074FEAD76C3A
:1005400009FA0CF7BE430F6907FA0CF73743C8F8EE
:10055000207006684FEA420C05FA0CF7BE430F798B
:1005600007F0030707FA0CF7374307604E6816F4E5
:10057000403F1CD04C4E376847F4804737603668A0
:1005800022F0030706F480460096484E07EB060C5F
:10059000DCF8086897073F0F09FA07F826EA08060B
:1005A000DFF80C81404503D14FF0000841E072E0D4
:1005B000DFF80081404502D14FF0010839E0DFF853
:1005C000F880404502D14FF0020832E0DFF8EC80BD
:1005D000404502D14FF003082BE0DFF8E4804045AE
:1005E00002D14FF0040824E0DFF8D880404502D162
:1005F0004FF005081DE0DFF8D080404502D14FF0F4
:10060000060816E0DFF8C480404502D14FF0070825
:100610000FE0DFF8BC80404502D14FF0080808E049
:10062000DFF8B080404502D14FF0090801E04FF0FB
:100630000A0808FA07F848EA0608CCF80888DAF841
:1006400000605746D1F804C09E435FEACC3C00D519
:100650001E433E60DBF800605F46D1F804C09E4355
:100660005FEA8C3C00D51E433E60DEF800607746B2
:10067000D1F804C09E435FEACC2C00D51E433E60F7
:10068000084F0C373E68D1F804C09E435FEA8C2CBB
:1006900000D51E433E60521C102AFFF411AFBDE886
:1006A000F88F0000003C0140443802400030014017
:1006B000000002400004024000080240000C02401A
:1006C000001002400014024000180240001C0240CA
:1006D0000020024000240240426921EA02030A404D
:1006E00043EA0241816170470AB1816170470904A0
:1006F000FBE70000014880687047000028000020E8
:100700000248816802781144816070472800002007
:100710000B4810B5016841F400710160016841F4B3
:1007200080610160016841F480710160032000F084
:100730006FF80F2000F006F800F024F8002010BD3C
:10074000003C024070B50D4D04464FF47A71287894
:10075000B1FBF0F00A490968B1FBF0F000F0ECFAE7
:1007600048B9102C07D200222146501E00F030F864
:1007700000206C6070BD012070BD000028000020CA
:10078000340000200A4808B5016841F48041016046
:10079000006800F4804000900548001F016841F0A7
:1007A00080510160006800F08050009008BD00009A
:1007B00044380240002809DB00F01F02012191406B
:1007C0004009800000F1E020C0F8001170470000EF
:1007D000F0B40E4B1B680C46C3F30223C3F10705AC
:1007E000042D00D90425191D072901D2002300E09A
:1007F000DB1E012606FA05F1491E214099409E4064
:10080000761E16403143F0BC01F094BC0CED00E0C4
:10081000064900F0070208684FF6FF03184040EA57
:100820000220034A10430860704700000CED00E00E
:100830000000FA052DE9F0470E46050065D0DFF807
:100840001481D8F80000F7B200F00F00B04207D2D0
:1008500088F80070D8F8000000F00F00B04254D1C2
:1008600028683D4C810712D5400703D5206840F425
:10087000E05020602878000703D5206840F46040ED
:1008800020602068A96820F0F000084320602878E4
:10089000C0072DD0304968680839012812D00228D5
:1008A00013D0032811D00968890700292DDA21689F
:1008B00021F0030101432160FFF71CFF814641F253
:1008C000883A0EE009688903EFE709688901ECE7D7
:1008D000FFF710FFA0EB0901514502D90320BDE845
:1008E000F0872068696800F00C00B0EB810FEFD151
:1008F000D8F80010404601F00F01B14207D9077047
:10090000006800F00F00B04201D00120E7E728782E
:10091000400705D52068E96820F4E05008432060CE
:100920002878000706D52068296920F4604040EA4D
:10093000C100206000F018F82168084AC1F30311D3
:10094000515CC8400649086006480068FFF7FAFE97
:100950000020C4E7003C0240083802407E24000822
:10096000340000202C000020154810B5006810F05D
:100970000C02144813D01449042A0FD0082A0ED1AF
:100980000F4C241F2268236802F03F025B0207D548
:100990002068C0F38810A0FB010106E0084610BDE6
:1009A0002168C1F38811A1FB00010023FFF76EFC51
:1009B0002168C1F30141491C4900B0FBF1F010BDB1
:1009C000083802400024F40040787D012DE9F84FFA
:1009D00004006ED02078DFF84C93C007A9F104051D
:1009E0004AD009F104000168C1F38101012908D04E
:1009F0000068C0F3810002280AD1D9F80000400243
:100A000006D52868800337D560680028E1D033E038
:100A10006068B0F5803F10D0B0F5A02F286810D0E6
:100A200020F480302860286820F4802028606068E6
:100A3000A8B1FFF75FFE06460DE0286840F480305D
:100A4000F4E740F480202860F7E700BFFFF752FE8C
:100A5000801B642873D828688003F7D50CE0FFF763
:100A600049FE064605E000BFFFF744FE801B6428F0
:100A7000F0D828688003F7D42078DFF8AC828007AC
:100A80004FF0000A3ED5A748001D016811F00C0F79
:100A900008D00068C0F3810002280BD1D9F800000B
:100AA000400207D42868800716D5E068012800D1E5
:100AB00012E033E1E068B8B10120C8F80000FFF7A8
:100AC00019FE064605E000BFFFF714FE801B022852
:100AD000C0D828688007F7D52868216920F0F80079
:100AE00040EAC10028600DE0C8F800A0FFF702FE50
:100AF000064604E0FFF7FEFD801B02281FD8286889
:100B00008007F7D42078000722D5864F874861698F
:100B1000703771B101210160FFF7ECFD064604E07A
:100B2000FFF7E8FD801B022809D838688007F7D551
:100B30000EE0C0F800A0FFF7DDFD064605E082E00C
:100B4000FFF7D8FD801B02287DD838688007F7D4CE
:100B50002078400768D5DFF8CCB100270BF13C0BBB
:100B6000DBF80000C0000BD4DBF8001041F080512E
:100B7000CBF80010DBF80000012700F08050009057
:100B80006B4E3068C00510D4306840F4807030601F
:100B9000FFF7B0FD009005E0FFF7ACFD0099401AAB
:100BA000022850D83068C005F6D55E4EA0686C3675
:100BB00001280FD00528306810D020F001003060E7
:100BC000306820F004003060A068B8B1FFF792FDF3
:100BD00000900FE0306840F00100F4E740F00400BE
:100BE0003060F7E7FFF786FD0099411A41F288303F
:100BF000814266D830688007F4D50EE0FFF77AFDB1
:100C0000009007E0FFF776FD0099411A41F2883025
:100C1000814256D830688007F4D42FB1DBF8001039
:100C200021F08051CBF80010A069C8B33D49091DDF
:100C30000968C1F3810102294AD00228504607D031
:100C4000C8F8600000E03CE0FFF754FD04463BE0DC
:100C50004746C8F86000FFF74DFD064605E000BFB7
:100C6000FFF748FD801B02282BD828688001F7D4A5
:100C7000D4E907010843A16A2E4A490802EB014161
:100C8000626A41EA8211084394F82C1040EA01613B
:100C9000C9F8001001203866FFF72CFD044606E075
:100CA0003EE000BFFFF726FD001B022809D8286898
:100CB0008001F7D534E000BFFFF71CFD001B0228C0
:100CC00002D90320BDE8F88F28688001F4D427E01A
:100CD0000128F7D0D9F80000E26900F480019142C0
:100CE0001CD1226A00F03F01914217D147F6C07132
:100CF000626A0140B1EB821F10D1A26A4FF0FF334C
:100D000000F4403103EB5202B1EB024F06D194F8EC
:100D10002C1000F07060B0EB016F01D00120D1E722
:100D20000020CFE70438024000004742800E4742CF
:100D3000007000400000FFFF10B5401EB0F1807F42
:100D400001D3012010BD4FF0E02460610F21601736
:100D500001F0F0F90020A06107202061002010BD03
:100D60007047704770B590F83C20012A32D00124BA
:100D700080F83C40022280F83D2003685A689D6854
:100D800022F070060A6832435A60134B02689A4296
:100D900014D0B2F1804F11D0104B9A420ED0104BAC
:100DA0009A420BD00F4B9A4208D00F4B9A4205D073
:100DB0000E4B9A4202D00E4B9A4204D1496825F05C
:100DC00080031943916080F83D40002180F83C1079
:100DD000084670BD022070BD0000014000040040C4
:100DE00000080040000C00400004014000400140A9
:100DF0000018004010B5040003D094F83D0010B175
:100E000007E0012010BD002084F83C00204600F0DF
:100E10001FF8022084F83D00211D206800F0C4FF67
:100E2000012084F8460084F83E0084F83F0084F8EE
:100E3000400084F8410084F8420084F8430084F8BC
:100E4000440084F8450084F83D00002010BD0000F7
:100E500008B5254A01682548914207D1016841F04B
:100E600002010160006800F0020009E0204A91429E
:100E700008D1016841F004010160006800F004003D
:100E8000009008BD1B4A91420ED1016841F0080153
:100E900001600068002200F0080000901146322036
:100EA000FFF796FC322010E0134A914211D10168FD
:100EB00041F0100101600068002200F01000009075
:100EC00011463620FFF784FC3620BDE80840FFF7C6
:100ED00071BC0A4A9142D4D1016841F040010160DD
:100EE000006800F04000CBE70004004040380240BA
:100EF00000080040000C00400010004000180040B6
:100F000090F83D10012901D001207047022180F89E
:100F10003D100168CA6842F00102CA6000681149C8
:100F2000884214D0B0F1804F11D00F4988420ED0C2
:100F30000E4988420BD00E49884208D00D4988429C
:100F400005D00D49884202D00C49884204D18168FD
:100F500001F00701062903D0016841F00101016099
:100F600000207047000001400004004000080040DD
:100F7000000C004000040140004001400018004007
:100F800070B5044690F83C000025012817D00126D2
:100F900084F83C60022084F83D002068826822F0DA
:100FA000770222F47F4282600868502838D00DDC36
:100FB00020284FD005DC90B3102811D14AE0022040
:100FC00070BD302846D040280AD13BE060282FD0A1
:100FD00070280DD0B0F5805F03D0B0F5005F12D05F
:100FE000012584F83D60002084F83C00284670BD4F
:100FF000CB68D1E90121206800F047FF20688168B3
:1010000041F0770109E0CB68D1E90121206800F0C7
:101010003CFF2068816841F480418160E1E719E08C
:10102000CA684968206801F005F85021206806E088
:10103000CA684968206801F04FF86021206800F014
:101040002EFFCEE7CA684968206800F0F3FF402110
:101050002068F4E7226801461046F0E770B50268A0
:101060004FF080418A4214D1007F00240E4D0128A8
:1010700010D002280DD104210C4800F023FC29785F
:1010800041F6BD7211FB02F100EBC1000849C1E954
:10109000000470BD4C620021044800F013FC0549B7
:1010A000C1E900042C7070BD000000208000002009
:1010B00010000020080000202DE9F041054690F8BE
:1010C0003C0000260C46012810D0012085F83C0089
:1010D00072B1042A1CD0082A2CD00C2A50D0012628
:1010E000002085F83C003046BDE8F0810220FBE797
:1010F000D4E90012E368286800F0AEFF286881692F
:1011000021F00C01816128688169A26811430FE018
:10111000D4E90012E368286800F0F0FF28688169CC
:1011200021F44061816128688169A26841EA022155
:101130008161D5E72868D4E9002C277B016A21F476
:1011400080710162C169036A21F0030141EA0C0167
:1011500021F0F00C39074FF420674CEA116123F4B9
:10116000206307EA02221A43C16102622868C1694A
:1011700021F00C01C1612868C169A268114328E00F
:101180002868D4E90027E168036A23F480530362E6
:10119000D0F81CC0036A2CF4407C4CEA07274FF6B9
:1011A000FF7C27F470470CEA013139434FF42047A4
:1011B00023F4204307EA02321A43C161026228681D
:1011C000C16921F44061C1612868C169A26841EA2E
:1011D0000221C16184E710B5040003D094F83D00FA
:1011E00010B107E0012010BD002084F83C0020462B
:1011F00000F01EF8022084F83D00211D206800F058
:10120000D3FD012084F8460084F83E0084F83F00B6
:1012100084F8400084F8410084F8420084F84300D8
:1012200084F8440084F8450084F83D00002010BD97
:1012300030B587B0044614216846FFF79EF82D4D5F
:10124000236800222C4802240121AB422AD12A4BD8
:1012500014331D6845F001051D601B6803F0010390
:101260000593036843F010030360006800F010006A
:10127000059048020090CDE90142CDE9032169467D
:101280001E48FFF70FF9002211461920FFF7A0FAB8
:101290001920FFF78FFA002211461B20FFF798FA5A
:1012A0001B2023E0B3F1804F22D1134B10331D6874
:1012B00045F001051D601B6803F0010305930368F9
:1012C00043F00103036000680091CDE9014200F0A2
:1012D0000100CDE90410039269460948FFF7E2F8DE
:1012E000002211461C20FFF773FA1C20FFF762FA58
:1012F00007B030BD0000014030380240001002400D
:101300000000024030B50446002551B104290DD03B
:10131000082910D094F8410094F84520012811D1F3
:101320000EE094F83E0094F84220F7E794F83F006E
:1013300094F84320F2E794F8400094F84420EDE755
:10134000012A01D0012030BD022059B1042912D058
:10135000082919D084F8410084F845000C2944D0AC
:10136000012540E084F83E0084F842002068C2680D
:1013700042F0020210E084F83F0084F84300206845
:10138000C26842F0040207E084F8400084F8440098
:101390002068C26842F00802C2600122206800F0A2
:1013A00067FD14492068884214D0B0F1804F11D0F5
:1013B000114988420ED0114988420BD01049884209
:1013C00008D01049884205D00F49884202D00F4901
:1013D000884204D1816801F00701062903D0016821
:1013E00041F001010160284630BD2068C26842F02A
:1013F0001002D1E700000140000400400008004056
:10140000000C004000040140004001400018004072
:1014100070B50446006801694FF00005C9438907AB
:1014200015D4C168C943890711D4E91E016101209F
:101430002077206880698007204602D0FFF70EFEE3
:1014400004E000F0E5F8204600F077F92577206801
:101450000169C943490717D4C168C943490713D46F
:101460006FF004010161022020772068806910F488
:10147000407F204602D0FFF7F1FD04E000F0C8F8FD
:10148000204600F05AF9257720680169C943090709
:1014900016D4C168C943090712D46FF0080101616D
:1014A000042020772068C0698007204602D0FFF71B
:1014B000D5FD04E000F0ACF8204600F03EF92577B9
:1014C00020680169C943C90617D4C168C943C90660
:1014D00013D46FF010010161082020772068C069E3
:1014E00010F4407F204602D0FFF7B8FD04E000F082
:1014F0008FF8204600F021F9257720680169C9435B
:10150000C90708D1C168C943C90704D1891E01614F
:10151000204600F08DF920680169C943090609D405
:10152000C168C943090605D46FF0800101612046F6
:10153000FFF716FC20680169C943490609D4C16850
:10154000C943490605D46FF040010161204600F00F
:10155000CEF920680169C94389060BD4C168C94323
:10156000890607D46FF0200101612046BDE8704074
:10157000FFF7F7BB70BD000030B587B004461421FB
:101580006846FEF7FAFE24681C4D00231C4902221F
:101590001C48AC4209D10C6844F002040C60096894
:1015A00001F00201059101210BE0174DAC4211D170
:1015B0000C6844F002040C60096801F00201059116
:1015C00080218DE80E00CDE903326946FEF76AFFFF
:1015D00007B030BD0D4DAC42FAD10C6844F00204A6
:1015E0000C60096801F00201059129148DE80E00D4
:1015F0000921CDE903316946E8E700000004004015
:10160000303802400004024000080040001800404A
:10161000704770B5044690F83C0000260D4601283E
:101620000FD0012084F83C006AB1042A1DD0082A9A
:101630002FD00C2A3FD00126002084F83C003046F1
:1016400070BD022070BD206800F032FC2068816906
:1016500041F0080181612068816921F00401816104
:10166000206881692A69114311E0206800F050FC6C
:101670002068816941F4006181612068816921F4F9
:1016800080618161206881692A6941EA0221816162
:10169000D2E7206800F072FC2068C16941F00801BF
:1016A000C1612068C16921F00401C1612068C1697C
:1016B0002A69114311E0206800F094FC2068C16998
:1016C00041F40061C1612068C16921F48061C16198
:1016D0002068C1692A6941EA0221C161ACE710B5FD
:1016E000040003D094F83D0010B107E0012010BDC4
:1016F000002084F83C00204600F01EF8022084F808
:101700003D00211D206800F04FFB012084F84600B9
:1017100084F83E0084F83F0084F8400084F84100DB
:1017200084F8420084F8430084F8440084F84500BB
:1017300084F83D00002010BD7047704730B500258B
:101740000446022249B1042912D008294CD094F849
:101750004100012853D0012030BD94F83E000128FB
:10176000F9D184F83E202068C26842F0020209E004
:1017700094F83F000128EED184F83F202068C26829
:1017800042F00402C2600122206800F071FB21498E
:101790002068214A884201D0904203D1436C43F42F
:1017A000004343642068884213D0B0F1804F10D0CA
:1017B0001A4988420DD01A4988420AD019498842EC
:1017C00007D0904205D01849884202D01749884274
:1017D00004D1816801F00701062903D0016841F0B6
:1017E00001010160284630BD94F840000128B2D1C3
:1017F00084F840202068C26842F00802C2E784F8FA
:1018000041200C2901D00125ECE72068C26842F094
:101810001002B7E70000014000040140000400404E
:1018200000080040000C004000400140001800404B
:1018300070B5044600681849884203D180211748D2
:10184000FEF74AFF2068B0F1804F07D114490878AD
:10185000401C087013480168491C01601248216847
:10186000814218D111490968C1621149114A124DCA
:101870000888401C80B200EB40030880D45C2C60D8
:101880001A440E4C537823600D4B92781A60BF288F
:1018900001D10020088070BD000C0040000402400F
:1018A000000000201800002000100040240000204C
:1018B000200000203E2200083C0400403808004080
:1018C000341800400246002041B1042909D00829FB
:1018D0000AD00C2901D11068006C70471068406B69
:1018E00070471068806B70471068C06B7047704716
:1018F000FEE70000F0B587B014216846FEF73DFD15
:1019000027480026016841F004010160016801F0E8
:1019100004010591016841F001010160016801F0D5
:1019200001010591016841F002010160016801F0C7
:1019300002010591016841F020010160016801F098
:1019400020010591016841F0100101600068154F08
:1019500000F010004FF480450590002229463846DB
:10196000FEF7C2FE681000904FF488100224CDE903
:10197000010469460C48FEF795FD01AA0120009577
:1019800082E8510069463846FEF78CFD0022114678
:101990002820FEF71DFF2820FEF70CFF07B0F0BD42
:1019A00030380240001402400008024010B58CB0EC
:1019B00000240794089409941C2168460A94FEF7B1
:1019C000DCFC1A481849C0E900144FF42061C0E952
:1019D0000241802104618161FFF70CFA08B172B6FF
:1019E000FEE74FF48050079007A91048FFF7C8FAA8
:1019F00008B172B6FEE70D48FFF771FE08B172B686
:101A0000FEE76020CDE90004029400226946074801
:101A10000494FFF7FEFD08B172B6FEE70348FFF736
:101A2000ABFD0CB010BD000000180040E801002024
:101A300010B586B000241E480594049400940194C7
:101A400002941A49039401600F21C0E901144FF672
:101A5000E851C0E9031444618461FFF7BCFB08B19D
:101A600072B6FEE7049404A911480594FFF77AF9C9
:101A700008B172B6FEE70120CDE9004002940022D1
:101A800069460B480394FFF717FB08B172B6FEE7EF
:101A9000022000900190042269460548FFF70CFBE4
:101AA000002801D072B6FEE706B010BD000001406C
:101AB0003800002010B586B000241D480594049419
:101AC0000094019402944FF08041039401600F212F
:101AD000C0E901144FF6E851C0E903148461FFF72F
:101AE0007AFB08B172B6FEE7049404A91048059485
:101AF000FFF738F908B172B6FEE70120CDE90040E2
:101B00000294002269460A480394FFF7D5FA08B107
:101B100072B6FEE702200090019004226946044854
:101B2000FFF7CAFA002801D072B6FEE706B010BD72
:101B30008000002010B58EB000240794089409940A
:101B40000A940B941C2168460C94FEF716FC1E4860
:101B50001C49C0E900144FF42061C0E90241802112
:101B600004618161FFF746F908B172B6FEE74FF4F0
:101B70008050079007A91448FFF702FA08B172B61F
:101B8000FEE71148FFF7ABFD08B172B6FEE70B9414
:101B90000BA90D480C94FFF7E5F808B172B6FEE703
:101BA0006020CDE9000402940822694606480494A6
:101BB000FFF72FFD08B172B6FEE70348FFF7DCFC24
:101BC0000EB010BD00040040C800002010B58EB05B
:101BD00000240794089409940A940B941C216846E5
:101BE0000C94FEF7CAFB1E481C49C0E900144FF4D0
:101BF0002061C0E90241802104618161FFF7FAF8A8
:101C000008B172B6FEE74FF48050079007A9144858
:101C1000FFF7B6F908B172B6FEE71148FFF75FFDAE
:101C200008B172B6FEE70B940BA90D480C94FFF7B0
:101C300099F808B172B6FEE76020CDE9000402947D
:101C40000422694606480494FFF7E3FC08B172B623
:101C5000FEE70348FFF790FC0EB010BD00080040FF
:101C60001001002010B586B000241848009401949B
:101C700002940394049414490594016043F67F612F
:101C8000C0E901144FF47A71C0E903148021816125
:101C9000FFF7B0F808B172B6FEE74FF4805000903D
:101CA00069460A48FFF76CF908B172B6FEE704947A
:101CB00004A906480594FFF755F8002801D072B62C
:101CC000FEE706B010BD0000000C004058010020E7
:101CD000FEE7FEE770477047FEF712BD10B592B001
:101CE00030216846FEF749FB14210CA8FEF745FB9E
:101CF00018480024016841F080510160006800F03C
:101D0000805011901448016821F4404141F4804111
:101D100001600068069400F4404011900220009099
:101D200001200390102004906846FEF74FFE08B192
:101D300072B6FEE70F20CDE90C040E940F9400213B
:101D40000CA81094FEF776FD002801D072B6FEE7CD
:101D500012B010BD403802400070004002480168D7
:101D600041F470010160704788ED00E00148FFF721
:101D70004FBB0000380000200148FFF749BB0000BE
:101D8000380000200148FFF743BB0000800000201E
:101D90000148FFF73DBB0000580100200148FFF754
:101DA00037BB0000A0010020F0B50268254C264D8D
:101DB000264E274F274B4FF0804CA04209D060455C
:101DC00007D0A84205D0B04203D0B84201D0984213
:101DD00004D122F0700E4A6842EA0E02A0421BD0E3
:101DE000604519D0A84217D0B04215D0B84213D0E0
:101DF000984211D0184DA8420ED0184DA8420BD0D1
:101E0000174DA84208D0174DA84205D0164DA8423C
:101E100002D0164DA84203D122F44075CA682A4365
:101E20004D6922F080022A4302608A68C2620A6811
:101E30008262A04201D0984201D109690163012167
:101E40004161F0BD00000140000400400008004076
:101E5000000C0040000401400040014000440140EB
:101E60000048014000180040001C004000200040D5
:101E700010B501F01F030121046A99408C430462EC
:101E8000016A9A401143016210BD10B5846842EAAC
:101E9000032224F47F440A432243826010BD8268F7
:101EA00022F070020A4342F007018160704700008F
:101EB000F0B5026A22F001020262036A4268846994
:101EC000124E24F073050C682C4323F002058B6836
:101ED0002B430D4DA84201D0B04205D123F0080795
:101EE000CB683B4323F00403A84201D0B04205D1A4
:101EF0004D6922F4407215438A692A434260846125
:101F0000496841630362F0BD0000014000040140E4
:101F1000F0B5026A22F010020262026A4368846924
:101F20000D6824F4E64444EA05248D6822F020027A
:101F300042EA05120F4D104EA84201D0B04206D120
:101F4000CF6822F0800242EA071222F04002A84243
:101F500001D0B04207D14D6923F4406343EA8503C1
:101F60008D6943EA85034360846149688163026245
:101F7000F0BD00000000014000040140F0B5026A1D
:101F800022F480720262026A4368C46922F4007219
:101F900024F073050C68124E2C438D6842EA05222A
:101FA0000E4DA84201D0B04206D1CF6822F40062A3
:101FB00042EA072222F48062A84201D0B04207D14F
:101FC0004D6923F4405343EA05138D6943EA051331
:101FD0004360C4614968C1630262F0BD0000014012
:101FE0000004014030B5026A22F480520262046AA1
:101FF0004268C3690D6823F4E64343EA05238D680C
:1020000024F4005444EA0534084DA84202D0084D97
:10201000A84204D14D6922F4804242EA851242600E
:10202000C36149680164046230BD000000000140E2
:102030000004014010B5036A046A24F0010404623C
:10204000846924F0F00444EA021423F00A020A43EB
:102050008461026210BD000070B5046A24F00104BE
:1020600004628469056A154EB04214D0B0F1804F05
:1020700011D0134EB0420ED0124EB0420BD0124EC1
:10208000B04208D0114EB04205D0114EB04202D03D
:10209000104EB04203D124F00304144301E044F095
:1020A00001041A0724F0F00444EA126225F00A033E
:1020B00001F00A0119438261016270BD0000014014
:1020C0000004004000080040000C004000040140F3
:1020D000004001400018004010B5036A23F01003CF
:1020E00003628369046A23F4704343EA023224F0F2
:1020F000A00343EA01118261016210BD30B5046A98
:1021000024F0100404628469056A24F4407444EAEB
:10211000022222F470444FF6FF7202EA0332224395
:10212000A02425F0A00304EA011119438261016291
:1021300030BDFEE70907090E002804DB00F1E020AE
:1021400080F80014704700F00F0000F1E02080F8E4
:10215000141D70471CB5FEF7DBFAFFF7BFFDFFF754
:10216000C9FBFFF77FFDFFF763FCFFF7A3FCFFF759
:10217000E1FCFFF72BFDFFF719FC00242948009430
:102180002749019401600721C0E901144FF47A71D5
:10219000C16080218161FEF72DFE08B172B6FEE7B5
:1021A000009469461F480194FEF7DCFD08B172B641
:1021B000FEE71C484838FEF7A3FE1B48FEF7A0FECA
:1021C00000211948FFF79EF804211748FFF79AF8F5
:1021D000154808214830FFF7B1FA12480421903819
:1021E000FFF7ACFA0F4800214830FFF7A7FA0D4877
:1021F000FEF786FE0D4D0E4C4FF48046012231460F
:102200002846FEF771FA2068FEF722F900223146CF
:102210002846FEF769FA2068FEF71AF9EEE7000093
:1022200000100040A00100208000002000140240A7
:102230001C0000204FF04070E1EE100A70470000D3
:10224000DD0800E11100E51900E82100EC2A00EFAB
:102250003200F13A00F44200F64A00F85200FA5A0D
:1022600000FC6200FD6900FE7100FE7800FF800046
:10227000FF8700FF8E00FE9500FE9B00FDA200FC84
:10228000A800FAAE00F8B400F6BA00F4C000F1C538
:1022900000EFCA00ECCF00E8D400E5D900E1DD0092
:1022A000DDE100D9E500D4E800CFEC00CAEF00C5BD
:1022B000F100C0F400BAF600B4F800AEFA00A8FCD1
:1022C00000A2FD009BFE0095FE008EFF0087FF0030
:1022D0007FFF0078FE0071FE0069FD0062FC005A7D
:1022E000FA0052F8004AF60042F4003AF10032EFE8
:1022F000002AEC0021E80019E50011E10008DD00EA
:1023000000E10800E51100E81900EC2100EF2A00C7
:10231000F13200F43A00F64200F84A00FA5200FCAA
:102320005A00FD6200FE6900FE7100FF7800FF7F29
:1023300000FF8700FE8E00FE9500FD9B00FCA200C2
:10234000FAA800F8AE00F6B400F4BA00F1C000EF4D
:10235000C500ECCA00E8CF00E5D400E1D900DDDD1E
:1023600000D9E100D4E500CFE800CAEC00C5EF00D9
:10237000C0F100BAF400B4F600AEF800A8FA00A26A
:10238000FC009BFD0095FE008EFE0087FF0080FF95
:102390000078FF0071FE0069FE0062FD005AFC003B
:1023A00052FA004AF80042F6003AF40032F1002AEC
:1023B000EF0021EC0019E80011E50008E10000DD64
:1023C0000000E10800E51100E81900EC2100EF2A07
:1023D00000F13200F43A00F64200F84A00FA5200E6
:1023E000FC5A00FD6200FE6900FE7100FF7800FFEC
:1023F0008000FF8700FE8E00FE9500FD9B00FCA282
:1024000000FAA800F8AE00F6B400F4BA00F1C0007B
:10241000EFC500ECCA00E8CF00E5D400E1D900DD4B
:10242000DD00D9E100D4E500CFE800CAEC00C5EF3B
:1024300000C0F100BAF400B4F600AEF800A8FA004B
:10244000A2FC009BFD0095FE008EFE0087FF008031
:10245000FF0078FF0071FE0069FE0062FD005AFC7B
:102460000052FA004AF80042F6003AF40032F10055
:102470002AEF0021EC0019E80011E50008E1000056
:102480000000000000000102030406070809000024
:10249000B02400080000002038000000E801000817
:1024A000E824000838000020580800000402000852
:1024B000000000000000000000000000000000001C
:1024C00000000000000000000000000014000000F8
:1024D00000000000E8030000010000001000000000
:0824E000000000000024F400DC
:04000005080001AD41
:00000001FF
